:100000000C942A000C943C000C943C000C949F002F
:100010000C943C000C943C000C943C000C943C0070
:100020000C943C000C943C000C943C000C943C0060
:100030000C943C000C943C000C943C000C943C0050
:100040000C943C000C943C000C943C000C943C0040
:100050000C943C0011241FBECFE5D8E0DEBFCDBF1D
:1000600020E0A0E6B0E001C01D92A236B207E1F7A1
:100070000E94C3000C94C8000C9400009FB79068C5
:100080009FBF811122C0613039F48BB780648BBF70
:1000900085B7836085BF089561110AC08BB78064FE
:1000A0008BBF85B7826085BF85B78E7F85BF08957A
:1000B000623009F043C08BB780648BBF85B78D7FFA
:1000C00085BF85B7816085BF0895813021F5613096
:1000D00051F48BB780688BBF85B7846085BF85B7C7
:1000E000886085BF089561110AC08BB780688BBF97
:1000F00085B78B7F85BF85B7886085BF08956230DF
:10010000E9F48BB780688BBF85B7877F85BF85B7DC
:10011000846085BF0895823089F4613039F48BB7EB
:1001200080628BBF84B7806484BF0895611106C06C
:100130008BB780628BBF84B78F7B84BF08951F927B
:100140000F920FB60F9211248F939F9380916000AE
:1001500090916100892B59F48FEF87BB80EF88BBAA
:1001600081E090E0909361008093600005C018BA30
:1001700010926100109260009F918F910F900FBEBE
:100180000F901F90189561E082E00E943E00FFCF23
:04019000F894FFCF11
:00000001FF
