:100000000C942A000C9434000C9434000C943400AA
:100010000C9434000C9434000C9434000C94340090
:100020000C9434000C9434000C9434000C94340080
:100030000C9434000C9434000C9434000C94340070
:100040000C9434000C9434000C9434000C94340060
:100050000C94340011241FBECFE5D8E0DEBFCDBF25
:100060000E94A6000C94B0000C9400003E9A3F98A9
:10007000883009F43D9A379A329A319A3098089527
:10008000369A349BFECF85B10895DB9A8FE39FE1CA
:100090000197F1F700C00000DB988FE39FE1019723
:1000A000F1F700C000000895CF93C82FD9988BB303
:1000B0008F708BBB8BB39C2F907F892B8BBB0E9447
:1000C00045008BB38F708BBB2BB330E1C39FC00156
:1000D0001124822B8BBB0E944500CF91089580EFA5
:1000E0008ABB8AB38E608ABBDA9883E30E9454008D
:1000F00082E30E94540088E20E9454008FE00E9434
:10010000540081E00E9454008FE39CE90197F1F7CD
:1001100000C000000895CF93C82FD99A8BB38F7079
:100120008BBB8BB39C2F907F892B8BBB0E94450090
:100130008BB38F708BBB2BB330E1C39FC0011124F5
:10014000822B8BBB0E944500CF91089588E00E94CE
:1001500036000E946F000E9440000E948B00FBCF7F
:04016000F894FFCF41
:00000001FF
