:100000000C942A000C9447000C9447000C94470071
:100010000C9447000C9447000C9447000C94470044
:100020000C9447000C9447000C9447000C94470034
:100030000C9447000C9447000C9447000C94470024
:100040000C9447000C9447000C9447000C94470014
:100050000C94470011241FBECFE5D8E0DEBFCDBF12
:1000600010E0A0E6B0E0E6ECF0E002C005900D92F2
:10007000A036B107D9F710E0A0E6B0E001C01D92AC
:10008000A036B107E1F70E9459000C9461000C946E
:1000900000003E9A379A329A319A0895369A349BE4
:1000A000FECF84B190E045B1342F20E0822B932B1A
:1000B00008950E9449008FEF81BB0E944E0082BBD1
:0600C000FCCFF894FFCF15
:00000001FF
