S00F0000544D555F4465762E73726563A1
S11300000C942A000C9447000C9447000C9447006D
S11300100C9447000C9447000C9447000C94470040
S11300200C9447000C9447000C9447000C94D8029D
S11300300C9447000C9447000C9447000C94470020
S11300400C9447000C9447000C9447000C94470010
S11300500C94470011241FBECFE5D8E0DEBFCDBF0E
S113006010E0A0E6B0E0EAEBFAE102C005900D92E0
S1130070A436B107D9F720E0A4E6B0E001C01D9290
S1130080A23AB207E1F70E9491020C945B0D0C9422
S11300900000CF93DF93CDB7DEB76C970FB6F8941B
S11300A0DEBF0FBECDBF8BE390E02BE330E0F90160
S11300B020812860FC01208380E090E0A0E8B0E487
S11300C089839A83AB83BC8320E030E04AEF54E415
S11300D069817A818B819C810E94B20CDC01CB0105
S11300E08B8B9C8BAD8BBE8B20E030E040E85FE3D4
S11300F06B897C898D899E890E94550B88232CF4F9
S113010081E090E0988F8F8B3FC020E03FEF4FE776
S113011057E46B897C898D899E890E94AD0C1816E1
S11301204CF520E030E040E251E469817A818B8132
S11301309C810E94B20CDC01CB01BC01CD010E9468
S1130140CC0BDC01CB01988F8F8B0FC088EC90E037
S11301509A8F898F898D9A8D0197F1F79A8F898F5C
S11301608F89988D0197988F8F8B8F89988D892B84
S113017069F714C06B897C898D899E890E94CC0B98
S1130180DC01CB01988F8F8B8F89988D9C8F8B8FFF
S11301908B8D9C8D0197F1F79C8F8B8F8BE390E077
S11301A02BE330E0F9012081277FFC01208380E0EC
S11301B090E0A0E8B0E48D839E83AF83B88720E00D
S11301C030E04AEF54E46D817E818F8198850E94EE
S11301D0B20CDC01CB0189879A87AB87BC8720E00E
S11301E030E040E85FE369857A858B859C850E94D1
S11301F0550B88232CF481E090E09E878D873FC0C7
S113020020E03FEF4FE757E469857A858B859C852D
S11302100E94AD0C18164CF520E030E040E251E4A9
S11302206D817E818F8198850E94B20CDC01CB01A7
S1130230BC01CD010E94CC0BDC01CB019E878D87D4
S11302400FC088EC90E0988B8F878F8598890197F1
S1130250F1F7988B8F878D859E8501979E878D8773
S11302608D859E85892B69F714C069857A858B8570
S11302709C850E94CC0BDC01CB019E878D878D85EC
S11302809E859A8B898B89899A890197F1F79A8B34
S1130290898B00006C960FB6F894DEBF0FBECDBFFD
S11302A0DF91CF910895CF93DF931F92CDB7DEB73F
S11302B089838BE390E02BE330E0F90120812D7FEB
S11302C0FC0120838BE390E02BE330E0F9012081F3
S11302D02F70FC0120838BE390E02BE330E0F901E5
S11302E02081322F2981207F232BFC0120830E942F
S11302F049008BE390E02BE330E0F90120812F707B
S1130300FC0120838BE390E02BE330E0F9012081B2
S1130310422F2981222F30E022953295307F3227D7
S1130320207F3227242BFC0120830E9449000000F7
S11303300F90DF91CF910895CF93DF93CDB7DEB7C0
S11303402E970FB6F894DEBF0FBECDBF8AE390E0C0
S113035020EFFC0120838AE390E02AE330E0F901F6
S113036020812E60FC0120838BE390E02BE330E0BE
S1130370F90120812B7FFC01208383E30E94530138
S113038082E30E94530188E20E9453018FE00E949D
S1130390530181E00E94530180E090E0A0EAB1E4BF
S11303A089839A83AB83BC8320E030E04AEF54E432
S11303B069817A818B819C810E94B20CDC01CB0122
S11303C08D839E83AF83B88720E030E040E85FE30D
S11303D06D817E818F8198850E94550B88232CF432
S11303E081E090E09A8789873FC020E03FEF4FE7A4
S11303F057E46D817E818F8198850E94AD0C18161B
S11304004CF520E030E040E251E469817A818B814F
S11304109C810E94B20CDC01CB01BC01CD010E9485
S1130420CC0BDC01CB019A8789870FC088EC90E064
S11304309C878B878B859C850197F1F79C878B879D
S113044089859A8501979A87898789859A85892BD1
S113045069F714C06D817E818F8198850E94CC0BD1
S1130460DC01CB019A87898789859A859E878D8748
S11304708D859E850197F1F79E878D8700002E96C6
S11304800FB6F894DEBF0FBECDBFDF91CF910895B4
S1130490CF93DF931F92CDB7DEB789838BE390E0D0
S11304A02BE330E0F90120812260FC0120838BE3FF
S11304B090E02BE330E0F90120812F70FC012083D0
S11304C08BE390E02BE330E0F9012081322F298186
S11304D0207F232BFC0120830E9449008BE390E0C2
S11304E02BE330E0F90120812F70FC0120838BE3A2
S11304F090E02BE330E0F9012081422F2981222F63
S113050030E022953295307F3227207F3227242B0A
S1130510FC0120830E94490000000F90DF91CF91DD
S11305200895AF92BF92CF92DF92EF92FF920F9312
S11305301F93CF93DF9300D0CDB7DEB7789487E3D2
S113054090E02FEFFC0120830E949C0188E492E05C
S11305509A83898348EE53E060E070E080E00E9473
S1130560D20889819A81A12CB12C6501A394E12C34
S1130570F12C8701E39421E0AC0161E070E080E0BC
S113058090E00E94600989819A81A12CB12C6501B7
S11305906894A1F8E12CF12C870121E0AC0165E01D
S11305A070E080E090E00E9460090E94360AFDCF6E
S11305B01F920F9200905F000F921124EF92FF920E
S11305C00F931F932F933F934F935F938F939F9317
S11305D0AF93BF93EF93FF93CF93DF93CDB7DEB782
S11305E08091730090917400A0917500B091760091
S11305F0892B8A2B8B2B09F466C080917300909110
S11306007400A0917500B09176008F3F9105A1050B
S1130610B10590F522E530E080917300909174006B
S1130620A0917500B09176008095F90180832091A6
S11306307300309174004091750050917600809160
S1130640730090917400A0917500B09176007901C7
S11306508A01E81AF90A0A0B1B0BD801C701809317
S1130660730090937400A0937500B093760088E3B0
S113067090E0FC0110825AC0809173009091740044
S1130680A0917500B09176008F3F9105A105B10549
S113069008F44CC082E590E0FC0110828091730064
S11306A090917400A0917500B09176008F5F9109CC
S11306B0A109B1098093730090937400A09375000D
S11306C0B093760033C08091730090917400A09130
S11306D07500B0917600892B8A2B8B2B39F580918C
S11306E0670090916800A0916900B0916A008093BE
S11306F0730090937400A0937500B093760082E524
S113070090E0FC01108280916F0090917000A091A4
S11307107100B09172000196A11DB11D80936F000C
S113072090937000A0937100B09372000000DF9169
S1130730CF91FF91EF91BF91AF919F918F915F9175
S11307404F913F912F911F910F91FF90EF900F9038
S113075000925F000F901F901895CF93DF93CDB751
S1130760DEB78EE490E02EE430E0F90120812B7FA7
S1130770FC0120838EE490E02EE430E0F901208136
S11307802D7FFC0120838EE490E02EE430E0F9011B
S113079020812E7FFC0120830000DF91CF910895FA
S11307A0CF93DF93CDB7DEB785E490E025E430E066
S11307B0F90120812B7FFC01208385E490E025E46E
S11307C030E0F90120812D7FFC01208385E490E055
S11307D025E430E0F90120812E7FFC012083000014
S11307E0DF91CF910895CF93DF9300D000D000D054
S11307F0CDB7DEB79E838D838D819E81FC0183817D
S113080089838D819E81FC0181818A838D819E8172
S1130810FC0180818B838D819E81FC0182818C838C
S11308208B81882F90E08C599F4F2A81FC01208373
S11308308B818823E1F483E590E023E530E0F9013E
S113084020812F7BFC01208383E590E023E530E0C9
S1130850F9012081277FFC01208389E590E029E5C7
S113086030E0F90120812160FC0120834FC08B819D
S1130870813071F58FE490E02FE430E0F9012081BC
S11308802E7FFC0120838FE490E02FE430E0F90117
S113089020812D7FFC0120838EE490E02EE430E063
S11308A0F9012081277FFC0120838EE490E02EE46F
S11308B030E0F90120812F7EFC01208389E590E05E
S11308C029E530E0F90120812460FC0120831EC069
S11308D08B818230D9F483E590E023E530E0F9019F
S11308E020812F7BFC01208383E590E023E530E029
S11308F0F9012081277FFC01208389E590E029E527
S113090030E0F90120812160FC01208380E02696FB
S11309100FB6F894DEBF0FBECDBFDF91CF9108951F
S1130920EF92FF920F931F93CF93DF93CDB7DEB770
S113093065970FB6F894DEBF0FBECDBF898B4A8B87
S11309405B8B6C8B7D8B19821A821B821C8289893A
S1130950882309F048C18989882F90E08C599F4FDA
S1130960FC018081882F90E08330910581F18430EF
S1130970910534F48130910551F00297B1F05DC0D6
S113098084309105B1F1059709F445C056C083E55B
S113099090E023E530E0F90120812160FC0120830F
S11309A019821A821B821C8248C083E590E023E5E9
S11309B030E0F90120812260FC01208380E090E096
S11309C0A0E8BFE389839A83AB83BC8336C083E505
S11309D090E023E530E0F90120812360FC012083CD
S11309E080E090E0A0E0B1E489839A83AB83BC8388
S11309F024C083E590E023E530E0F9012081246000
S1130A00FC01208380E090E0A0E0B2E489839A8333
S1130A10AB83BC8312C083E590E023E530E0F901A9
S1130A2020812560FC01208380E090E0A0E0B3E415
S1130A3089839A83AB83BC8300002A893B894C89D0
S1130A405D8988EE93E0DC010E94410DDC01CB015D
S1130A50BC01CD010E94FB0BDC01CB0129813A8151
S1130A604B815C81BC01CD010E945A0BDC01CB019E
S1130A70BC01CD010E94CC0BDC01CB01809373003F
S1130A8090937400A0937500B093760080917300E6
S1130A9090917400A0917500B091760080936700E6
S1130AA090936800A0936900B0936A0081E090E09D
S1130AB0A0E0B0E08D839E83AF83B8871092770067
S1130AC0109278001092790010927A0073C080918D
S1130AD0730090917400A0917500B09176008F3FDF
S1130AE09105A105B10570F522E530E08091730010
S1130AF090917400A0917500B09176008095F901F1
S1130B00808320917300309174004091750050915E
S1130B1076008091730090917400A0917500B0915B
S1130B20760079018A01E81AF90A0A0B1B0BD8012D
S1130B30C7018093730090937400A0937500B093E1
S1130B40760022C38091730090917400A091750087
S1130B50B09176008F3F9105A105B105C0F082E503
S1130B6090E0FC0110828091730090917400A09138
S1130B707500B09176008F5F9109A109B109809346
S1130B80730090937400A0937500B09376008091E5
S1130B90770090917800A0917900B0917A00019645
S1130BA0A11DB11D8093770090937800A0937900E4
S1130BB0B0937A008D819E81AF81B8859C01AD018F
S1130BC02F5F3F4F4F4F5F4F809177009091780098
S1130BD0A0917900B0917A0082179307A407B50712
S1130BE008F475CFD1C28989813009F05EC1898941
S1130BF0882F90E08C599F4FFC018081882F90E0D2
S1130C008330910581F18430910534F4813091056C
S1130C1051F00297B1F05DC084309105B1F10597B0
S1130C2009F445C056C08EE490E02EE430E0F901AA
S1130C3020812160FC01208319821A821B821C827C
S1130C4048C08EE490E02EE430E0F9012081226077
S1130C50FC01208380E090E0A0E8BFE389839A83CD
S1130C60AB83BC8336C08EE490E02EE430E0F9011F
S1130C7020812360FC01208380E090E0A0E0B1E4C7
S1130C8089839A83AB83BC8324C08EE490E02EE4F2
S1130C9030E0F90120812460FC01208380E090E0B1
S1130CA0A0E0B2E489839A83AB83BC8312C08EE450
S1130CB090E02EE430E0F90120812560FC012083DE
S1130CC080E090E0A0E0B3E489839A83AB83BC83A3
S1130CD000002A893B894C895D8988EE93E0DC0118
S1130CE00E94410DDC01CB01BC01CD010E94FB0B34
S1130CF0DC01CB0129813A814B815C81BC01CD01AE
S1130D000E945A0BDC01CB01BC01CD010E94CC0B2B
S1130D10DC01CB018093730090937400A093750061
S1130D20B09376008091730090917400A091750047
S1130D30B09176002FEF3FEF40E050E0BC01CD01D1
S1130D400E941F0DDA01C90189879A87AB87BC8786
S1130D5010927700109278001092790010927A0025
S1130D6087C08091730090917400A0917500B09138
S1130D7076008F3F9F4FA105B10540F52CE430E08C
S1130D808091730090917400A0917500B0917600E9
S1130D9080959095F90191838083000088E590E027
S1130DA0FC018081882F90E0847099279595879520
S1130DB095958795892B91F388E590E028E530E0B7
S1130DC0F90120812160FC0120836CC080917300B3
S1130DD090917400A0917500B09176008F3F9F4F61
S1130DE0A105B10508F45DC08CE490E0FC0111821A
S1130DF01082000088E590E0FC018081882F90E05B
S1130E00847099279595879595958795892B91F366
S1130E1088E590E028E530E0F90120812160FC01BB
S1130E2020838091730090917400A0917500B0911B
S1130E3076008F5F9F4FA109B1098093730090934F
S1130E407400A0937500B093760080917700909120
S1130E507800A0917900B0917A000196A11DB11D8E
S1130E608093770090937800A0937900B0937A00F0
S1130E7089859A85AB85BC859C01AD012F5F3F4F69
S1130E804F4F5F4F8091770090917800A091790047
S1130E90B0917A0082179307A407B50708F461CFCD
S1130EA001C000000E94AD036FC18989823009F03E
S1130EB06BC18989882F90E08C599F4FFC018081F8
S1130EC0882F90E08330910581F18430910534F4CA
S1130ED08130910551F00297B1F05DC084309105E5
S1130EE0B1F1059709F445C056C085E490E025E4C6
S1130EF030E0F90120812160FC01208319821A82EB
S1130F001B821C8251C085E490E025E430E0F901A5
S1130F1020812260FC01208380E090E0A0E8BFE310
S1130F2089839A83AB83BC833FC085E490E025E446
S1130F3030E0F90120812360FC01208380E090E00F
S1130F40A0E0B1E489839A83AB83BC832DC085E49C
S1130F5090E025E430E0F90120812460FC01208345
S1130F6080E090E0A0E0B2E489839A83AB83BC8301
S1130F701BC085E490E025E430E0F9012081256080
S1130F80FC01208380E090E0A0E0B3E489839A83AD
S1130F90AB83BC8309C080E090E0A0E0B3E4898324
S1130FA09A83AB83BC8300002A893B894C895D8981
S1130FB088EE93E0DC010E94410DDC01CB01BC0111
S1130FC0CD010E94FB0BDC01CB0129813A814B81CD
S1130FD05C81BC01CD010E945A0BDC01CB01BC0138
S1130FE0CD010E94CC0BDC01CB0180937300909364
S1130FF07400A0937500B093760080917300909173
S11310007400A0917500B09176002FEF30E040E0BD
S113101050E0BC01CD010E941F0DDA01C9018D878A
S11310209E87AF87B88B1092770010927800109249
S1131030790010927A008CC08091730090917400B2
S1131040A0917500B09176008F3F9105A105B1057F
S113105050F524E430E08091730090917400A091E5
S11310607500B09176008095F9018083000088E5D1
S113107090E0FC018081882F90E080749927082EED
S1131080892F000C881F990B000C881F991F892B2E
S113109071F388E590E028E530E0F90120812160D2
S11310A0FC0120836FC08091730090917400A09123
S11310B07500B09176008F3F9105A105B10508F444
S11310C060C084E490E0FC011082000088E590E0B8
S11310D0FC018081882F90E080749927082E892F45
S11310E0000C881F990B000C881F991F892B71F322
S11310F088E590E028E530E0F90120812160FC01D9
S113110020838091730090917400A0917500B09138
S113111076008F5F9109A109B109809373009093C0
S11311207400A0937500B09376008091770090913D
S11311307800A0917900B0917A000196A11DB11DAB
S11311408093770090937800A0937900B0937A000D
S11311508D859E85AF85B8899C01AD012F5F3F4F7A
S11311604F4F5F4F8091770090917800A091790064
S1131170B0917A0082179307A407B50708F45CCFEF
S113118001C000000E94D00380E065960FB6F89479
S1131190DEBF0FBECDBFDF91CF911F910F91FF90A6
S11311A0EF900895CF93DF93CDB7DEB729970FB6AD
S11311B0F894DEBF0FBECDBF8D834E835F836887F7
S11311C0798780916200909163002D81FC012083D6
S11311D08091620090916300FC011382809162000F
S11311E090916300FC0112828091620090916300EF
S11311F025E0FC01218320916200309163008E81FF
S11312009F81A885B985F90184839583A683B783D3
S113121080916200909163000E94F30319821A8204
S11312201B821C823AC029813A814FE0429FC0014F
S1131230439F900D112484579F4FFC01118210820B
S113124029813A814FE0429FC001439F900D1124B0
S11312509C012C573F4F8FEF9FEFDC01F9018083F6
S11312609183A283B38329813A814FE0429FC001D5
S1131270439F900D112488579F4FFC0110821182C7
S11312801282138289819A81AB81BC810196A11D4E
S1131290B11D89839A83AB83BC8389819A81AB8195
S11312A0BC810297A105B10508F4BDCF00002996C1
S11312B00FB6F894DEBF0FBECDBFDF91CF91089576
S11312C0AF92BF92CF92DF92EF92FF920F931F9350
S11312D0CF93DF93CDB7DEB761970FB6F894DEBF37
S11312E00FBECDBF6B837C838D839E8358874F83D2
S11312F02987EA86FB860C871D87AE86BF86C88A47
S1131300D98A1A82198287C029813A814FE0429F83
S1131310C001439F900D11248C579F4FFC01808185
S11313209181A281B3818F3F9F4FAF4FBF4F31F067
S113133089819A8101969A8389836DC029813A8132
S11313404FE0429FC001439F900D11248C579F4F43
S1131350FC0180819181A281B3818F3F9F4FAF4F68
S1131360BF4F09F058C08A859B85AC85BD854981EE
S11313705A816FE0649F9001659F300D11242C57B2
S11313803F4FF90180839183A283B38329813A81FA
S11313904FE0429FC001439F900D112484579F4FFB
S11313A02F813885FC013183208329813A814FE0E4
S11313B0429FC001439F900D11249C0122573F4F2F
S11313C08B819C81AD81BE81F90180839183A2834D
S11313D0B38329813A814FE0429FC001439F900D1E
S11313E011248E569F4F2985FC01208329813A813F
S11313F04FE0429FC001439F900D11249C01285748
S11314003F4F8E859F85A889B989F901808391838F
S1131410A283B38305C089819A8102970CF474CFA7
S11314208091620090916300FC0184819581A68182
S1131430B7812091620030916300F9012081AC01F1
S1131440BD01822F0E94900480E061960FB6F8944B
S1131450DEBF0FBECDBFDF91CF911F910F91FF90E3
S1131460EF90DF90CF90BF90AF900895CF93DF932C
S1131470CDB7DEB762970FB6F894DEBF0FBECDBF0F
S113148085E090E0A0E0B0E08D839E83AF83B887D1
S113149019821A821B821C82F3C029813A814FE08F
S11314A0429FC001439F900D11248C579F4FFC0114
S11314B080819181A281B3818F3F9F4FAF4FBF4FF6
S11314C009F4E8C029813A814FE0429FC001439F5B
S11314D0900D11248E569F4FFC01808180938300D0
S11314E029813A814FE0429FC001439F900D11240E
S11314F082579F4FFC0180819181A281B3818987AA
S11315009A87AB87BC8729813A814FE0429FC0010B
S1131510439F900D112488579F4FFC018081918136
S1131520A281B3818D879E87AF87B88B809183001A
S1131530882309F056C08091600090916100FC01FD
S113154080819181A281B38129853A854B855C850F
S1131550BC01CD010E941F0DDC01CB01892B8A2B1C
S11315608B2B09F082C08091600090916100FC0196
S113157080819181A281B38120916B0030916C00B4
S113158040916D0050916E0082179307A407B50730
S113159009F46BC029813A814FE0429FC001439F07
S11315A0900D112484579F4FFC01808191819A8B67
S11315B0898B29893A8982E490E0F901099580911F
S11315C0600090916100FC0180819181A281B381CE
S11315D080936B0090936C00A0936D00B0936E00A9
S11315E044C080918300813009F03FC080916B003A
S11315F090916C00A0916D00B0916E008F3F9F4F51
S1131600AF4FBF4F91F18091600090916100FC0158
S1131610208131814281538189859A85AB85BC853E
S1131620281739074A075B0701F529813A814FE0FA
S1131630429FC001439F900D112484579F4FFC018A
S1131640808191819A8B898B8FEF9FEFDC0180934E
S11316506B0090936C00A0936D00B0936E00298989
S11316603A8981E490E0F901099589819A81AB81F5
S1131670BC810196A11DB11D89839A83AB83BC8370
S113168089819A81AB81BC810397A105B10508F4D6
S113169004CF01C00000000062960FB6F894DEBFCC
S11316A00FBECDBFDF91CF9108950E94380C08F48E
S11316B081E008950E946E0B0C94730C0E946C0CD4
S11316C058F00E94650C40F029F45F3F29F00C9417
S11316D05C0C51110C94A70C0C94620C0E94840CA9
S11316E068F39923B1F3552391F3951B550BBB274D
S11316F0AA2762177307840738F09F5F5F4F220F92
S1131700331F441FAA1FA9F335D00E2E3AF0E0E888
S113171032D091505040E695001CCAF72BD0FE2FD2
S113172029D0660F771F881FBB1F26173707480766
S1131730AB07B0E809F0BB0B802DBF01FF2793581E
S11317405F4F3AF09E3F510578F00C945C0C0C947A
S1131750A70C5F3FE4F3983ED4F38695779567959D
S1131760B795F7959F5FC9F7880F911D9695879553
S113177097F90895E1E0660F771F881FBB1F621772
S113178073078407BA0720F0621B730B840BBA0B30
S1131790EE1F88F7E09508950E948C0C88F09F57FF
S11317A098F0B92F9927B751B0F0E1F0660F771F81
S11317B0881F991F1AF0BA95C9F714C0B13091F077
S11317C00E94A60CB1E008950C94A60C672F782F04
S11317D08827B85F39F0B93FCCF38695779567953C
S11317E0B395D9F73EF490958095709561957F4FA8
S11317F08F4F9F4F0895E89409C097FB3EF490954E
S11318008095709561957F4F8F4F9F4F9923A9F0D5
S1131810F92F96E9BB279395F69587957795679564
S1131820B795F111F8CFFAF4BB0F11F460FF1BC0A8
S11318306F5F7F4F8F4F9F4F16C0882311F096E93B
S113184011C0772321F09EE8872F762F05C06623E9
S113185071F096E8862F70E060E02AF09A95660FA2
S1131860771F881FDAF7880F9695879597F908955B
S1131870990F0008550FAA0BE0E8FEEF161617069D
S1131880E807F907C0F012161306E407F50798F005
S1131890621B730B840B950B39F40A2661F0232B1E
S11318A0242B252B21F408950A2609F4A140A6959A
S11318B08FEF811D811D089597F99F6780E870E07F
S11318C060E008959FEF80EC089500240A941616B2
S11318D0170618060906089500240A94121613061A
S11318E0140605060895092E0394000C11F48823A8
S11318F052F0BB0F40F4BF2B11F460FF04C06F5FC4
S11319007F4F8F4F9F4F089557FD9058440F551F99
S113191059F05F3F71F04795880F97FB991F61F06D
S11319209F3F79F087950895121613061406551FE4
S1131930F2CF4695F1DF08C0161617061806991F50
S1131940F1CF86957105610508940895E894BB2745
S113195066277727CB0197F908950E94380C08F47D
S11319608FEF08950E94C50C0C94730C0E94650CB3
S113197038F00E946C0C20F0952311F00C945C0C50
S11319800C94620C11240C94A70C0E94840C70F328
S1131990959FC1F3950F50E0551F629FF001729F10
S11319A0BB27F00DB11D639FAA27F00DB11DAA1F1F
S11319B0649F6627B00DA11D661F829F2227B00D6C
S11319C0A11D621F739FB00DA11D621F839FA00DF7
S11319D0611D221F749F3327A00D611D231F849F47
S11319E0600D211D822F762F6A2F11249F5750409E
S11319F09AF0F1F088234AF0EE0FFF1FBB1F661F19
S1131A00771F881F91505040A9F79E3F510580F0E1
S1131A100C945C0C0C94A70C5F3FE4F3983ED4F355
S1131A20869577956795B795F795E7959F5FC1F785
S1131A30FE2B880F911D9695879597F90895A1E23D
S1131A401A2EAA1BBB1BFD010DC0AA1FBB1FEE1F34
S1131A50FF1FA217B307E407F50720F0A21BB30B7F
S1131A60E40BF50B661F771F881F991F1A9469F7FB
S1131A7060957095809590959B01AC01BD01CF0157
S1131A8008950E944C0DA59F900DB49F900DA49FA6
S1131A90800D911D11240895A29FB001B39FC00130
S1131AA0A39F700D811D1124911DB29F700D811D86
S10D1AB01124911D0895F894FFCF4E
S1071ABA6F007B003A
S9030000FC
