:100000000C942A000C9447000C9447000C94470071
:100010000C9447000C9447000C9447000C94470044
:100020000C9447000C9447000C9447000C94470034
:100030000C9447000C941D030C94E3020C944700AD
:100040000C9447000C9447000C9447000C94470014
:100050000C94470011241FBECFE5D8E0DEBFCDBF12
:1000600010E0A0E6B0E0E0EFF7E002C005900D92EE
:10007000AA36B107D9F720E0AAE6B0E001C01D9288
:10008000A138B207E1F70E949E020C94F6030C948B
:100090000000FF920F931F93CF93DF93CDB7DEB78E
:1000A00029970FB6F894DEBF0FBECDBF8C0190919B
:1000B0007E009130B1F1D8018D919C919B838A8310
:1000C00088E08D83198618861E82FF24F394F982B6
:1000D0001F82FC82CE0101960E944A03F8018681AC
:1000E0009781A085B185E6E7F0E083839483A583BB
:1000F000B683D80114968D919C9115979283818334
:100100001A962C912083F0860396A0E0B0E08093AD
:10011000720090937300A0937400B093750080E018
:1001200001C081E029960FB6F894DEBF0FBECDBFA7
:10013000DF91CF911F910F91FF90089580916E00F4
:1001400090916F00A0917000B09171008230910584
:10015000A105B10509F443C083309105A105B1059E
:1001600009F474C00197A105B10509F08BC0809115
:100170006A0090916B00A0916C00B0916D0083308B
:100180009105A105B10568F4FC01EA58FF4F808193
:10019000E6E7F0E09781980F978390E00E94E803EC
:1001A00071C0409172005091730060917400709121
:1001B000750084179507A607B70708F04AC0E6E759
:1001C000F0E023813481820F931FDC0113978C911F
:1001D0009781980F978390E00E94E80353C0809125
:1001E0006A0090916B00A0916C00B0916D0083301B
:1001F0009105A105B10568F4FC01EA58FF4F808123
:10020000E6E7F0E09781980F978390E00E94E8037B
:1002100039C04091720050917300609174007091E8
:10022000750084179507A607B70700F5E6E7F0E025
:1002300023813481820F931FDC0113978C91978166
:10024000980F978390E00E94E8031CC010927E00F4
:1002500019C083E090E0A0E0B0E080936E0090933E
:100260006F00A0937000B09371000CC083E090E029
:10027000A0E0B0E080936E0090936F00A0937000B8
:10028000B093710080E090E008958091760090E056
:100290000E94E80380E00895803208F09EC061303B
:1002A00009F04BC0883078F44BB3877021E030E020
:1002B000B90102C0660F771F8A95E2F7CB01842B44
:1002C0008BBB80E0089598EF980F983078F448B38E
:1002D000877021E030E0B90102C0660F771F8A9570
:1002E000E2F7CB01842B88BB80E0089590EF980F54
:1002F000983078F445B3877021E030E0B90102C04E
:10030000660F771F8A95E2F7CB01842B85BB80E0CF
:10031000089598EE980F983008F061C042B3877046
:1003200021E030E0B90102C0660F771F8A95E2F73D
:10033000CB01842B82BB80E00895611152C08830CC
:1003400080F44BB3877021E030E0B90102C0660F42
:10035000771F8A95E2F7CB01809584238BBB80E0E1
:10036000089598EF980F983080F448B3877021E093
:1003700030E0B90102C0660F771F8A95E2F7CB0122
:100380008095842388BB80E0089590EF980F983083
:1003900080F445B3877021E030E0B90102C0660FF8
:1003A000771F8A95E2F7CB018095842385BB80E097
:1003B000089598EE980F9830B0F442B3877021E01A
:1003C00030E0B90102C0660F771F8A95E2F7CB01D2
:1003D0008095842382BB80E0089581E0089580E0C9
:1003E000089581E0089580E00895803208F09EC06D
:1003F000613009F04BC0883078F44AB3877021E04F
:1004000030E0B90102C0660F771F8A95E2F7CB0191
:10041000842B8ABB80E0089598EF980F983078F489
:1004200047B3877021E030E0B90102C0660F771F43
:100430008A95E2F7CB01842B87BB80E0089590EF8B
:10044000980F983078F444B3877021E030E0B90118
:1004500002C0660F771F8A95E2F7CB01842B84BB1D
:1004600080E0089598EE980F983008F061C041B38D
:10047000877021E030E0B90102C0660F771F8A95CE
:10048000E2F7CB01842B81BB80E00895611152C05B
:10049000883080F44AB3877021E030E0B90102C0AF
:1004A000660F771F8A95E2F7CB01809584238ABB7C
:1004B00080E0089598EF980F983080F447B38770E4
:1004C00021E030E0B90102C0660F771F8A95E2F79C
:1004D000CB018095842387BB80E0089590EF980F2F
:1004E000983080F444B3877021E030E0B90102C055
:1004F000660F771F8A95E2F7CB018095842384BB32
:1005000080E0089598EE980F9830B0F441B387706A
:1005100021E030E0B90102C0660F771F8A95E2F74B
:10052000CB018095842381BB80E0089581E008950C
:1005300080E0089581E0089580E00895CF93DF93EF
:10054000CDB7DEB768970FB6F894DEBF0FBECDBF4C
:100550002AE0E0E6F0E0CE010196DC0101900D9288
:100560002A95E1F7092E000CAA0BBB0B898B9A8BFD
:10057000AB8BBC8B80E895E2A0E0B0E08B879C87DA
:10058000AD87BE878AE090E0988B8F8785E190E009
:10059000A0E0B0E08D8B9E8BAF8BB88FCE010B9619
:1005A0000E94490061E070E080E090E00E94450117
:1005B0008FEF87BB0E949E008FE19EE40197F1F7C9
:1005C00000C00000F7CF1F920F920FB60F921124B8
:1005D0002F933F938F939F93809180008CB98FEFDF
:1005E0008ABB87BB80916E008BBB80916A00909123
:1005F0006B002091720030917300821793076CF4A6
:1006000022E030E030936F0020936E0001969093CB
:100610006B0080936A0088BB06C083E090E09093F3
:100620006F0080936E0055989F918F913F912F910D
:100630000F900FBE0F901F9018951F920F920FB63C
:100640000F9211242F933F934F935F936F937F9358
:100650008F939F93AF93BF93EF93FF9361E08AE0F3
:100660000E94F50161E08AE00E944C018CB1809308
:100670007F00FF91EF91BF91AF919F918F917F91FB
:100680006F915F914F913F912F910F900FBE0F90FF
:100690001F901895FC01549A539A80B58F7780BDAE
:1006A0008081882319F0813039F00CC0599810BC32
:1006B00083E389B980E007C0599A10BC87E689B9FD
:1006C00080E001C081E090B5906890BD938199234E
:1006D00019F0913029F008C090B5906490BD05C024
:1006E00090B59F7B90BD01C081E094819730D9F097
:1006F00028F4953041F0963071F02DC09830D9F043
:10070000993009F128C090B59D7F90BD90B59B7F31
:1007100090BD529821C090B5926090BD90B59B7FDE
:1007200090BD529819C090B59D7F90BD90B59460D2
:1007300090BD529811C090B5926090BD90B59460F4
:1007400090BD529809C090B5926090BD90B59460EC
:1007500090BD529A01C081E09581913059F018F016
:10076000923079F015C090B59F7D90BD90B59F7E79
:1007700090BD0FC090B5906290BD90B59F7E90BD2A
:1007800008C090B5906290BD90B5906190BD01C0D9
:1007900081E09681992319F0913029F008C090B535
:1007A000986090BD05C090B5977F90BD01C081E075
:1007B0009781992319F0913029F008C09FB790686C
:1007C0009FBF08959FB79F779FBF089581E00895C9
:1007D0005D9907C081E090E090936F0080936E0078
:1007E00003C080938000559A80E00895F894FFCF6D
:0A07F00001020304050607080909C9
:00000001FF
