:100000000C942A000C943F000C943F000C943F0089
:100010000C943F000C943F000C943F000C943F0064
:100020000C943F000C943F000C943F000C943F0054
:100030000C943F000C943F000C943F000C943F0044
:100040000C943F000C943F000C943F000C943F0034
:100050000C943F0011241FBECFE5D8E0DEBFCDBF1A
:1000600010E0A0E6B0E0E2E8F1E002C005900D92F9
:10007000A237B107D9F70E9441000C94BF000C943D
:1000800000000E94720080E690E00E94A900FFCF6D
:10009000DB9A8FE39FE10197F1F700C00000DB9846
:1000A0008FE39FE10197F1F700C000000895CF931F
:1000B000C82FD9988BB38F708BBB8BB39C2F907F3D
:1000C000892B8BBB0E9448008BB38F708BBB2BB3EB
:1000D00030E1C39FC0011124822B8BBB0E944800DA
:1000E000CF91089580EF8ABB8AB38E608ABBDA987D
:1000F00083E30E94570082E30E94570088E20E9437
:1001000057008FE00E94570081E00E9457008FE364
:100110009CE90197F1F700C000000895CF93C82F24
:10012000D99A8BB38F708BBB8BB39C2F907F892B0D
:100130008BBB0E9448008BB38F708BBB2BB330E11D
:10014000C39FC0011124822B8BBB0E944800CF911A
:1001500008950F931F93CF93FC018081882359F05A
:100160008F01C0E00E948E00CF5FF801EC0FF11DFF
:1001700080818111F7CFCF911F910F910895F8944D
:02018000FFCFAF
:1001820068757373616D206C6F76657273203C3392
:0201920000006B
:00000001FF
