S01A00004943555F50574D5F535441544943415243482E7372656391
S11300000C942A000C9447000C9447000C948F0025
S11300100C9447000C9458020C9447000C9447002D
S11300200C9447000C94AD010C9447000C941A01F5
S11300300C9447000C9447000C9447000C94470020
S11300400C9447000C9447000C9447000C94470010
S11300500C94470011241FBECFE5D8E0DEBFCDBF0E
S113006010E0A0E6B0E0E8E2F6E002C005900D92F0
S1130070A036B107D9F720E0A0E6B0E001C01D9298
S1130080AA37B207E1F70E94B2000C9412030C9451
S11300900000DB9A8FE39FE10197F1F700C00000B5
S11300A0DB988FE39FE10197F1F700C0000008950A
S11300B0CF93C82FD9988BB38F708BBB8BB39C2FE6
S11300C0907F892B8BBB0E9449008BB38F708BBBB5
S11300D02BB330E1C39FC0011124822B8BBB0E9440
S11300E04900CF91089580EF8ABB8AB38E608ABBA2
S11300F0DA9883E30E94580082E30E94580088E261
S11301000E9458008FE00E94580081E00E9458002D
S11301108FE39CE90197F1F700C0000008951F9256
S11301200F920FB60F9211248F939F9380916000CA
S113013090916100892B51F480EF87BB88BB81E0EB
S113014090E0909361008093600005C018BA10920B
S11301506100109260009F918F910F900FBE0F90DD
S11301601F9018950E94730061E082E00E94B9001C
S1130170FFCF9FB790689FBF811122C0613039F4CF
S11301808BB780648BBF85B7836085BF0895611189
S11301900AC08BB780648BBF85B7826085BF85B783
S11301A08E7F85BF0895623009F043C08BB78064A9
S11301B08BBF85B78D7F85BF85B7816085BF089567
S11301C0813021F5613051F48BB780688BBF85B7DE
S11301D0846085BF85B7886085BF089561110AC0B2
S11301E08BB780688BBF85B78B7F85BF85B78860E9
S11301F085BF08956230E9F48BB780688BBF85B7FB
S1130200877F85BF85B7846085BF0895823089F470
S1130210613039F48BB780628BBF84B7806484BF4C
S11302200895611106C08BB780628BBF84B78F7B42
S113023084BF08951F920F920FB60F9211248F93CB
S11302409F93AF93BF9380916A0090916B00A091AC
S11302506C00B0916D00892B8A2B8B2B09F444C060
S113026080916A0090916B00A0916C00B0916D0038
S11302708F3F9105A105B10598F480916A00909192
S11302806B00A0916C00B0916D00809582BF1092BC
S11302906A0010926B0010926C0010926D0054C0B2
S11302A080916A0090916B00A0916C00B0916D00F8
S11302B08F3F9105A105B10508F446C012BE809197
S11302C06A0090916B00A0916C00B0916D008F5FFB
S11302D09109A109B10980936A0090936B00A093DE
S11302E06C00B0936D0030C080916A0090916B00F7
S11302F0A0916C00B0916D00892B8A2B8B2B21F57A
S11303008091620090916300A0916400B0916500B7
S113031080936A0090936B00A0936C00B0936D007F
S113032012BE8091660090916700A0916800B09120
S113033069000196A11DB11D80936600909367002A
S1130340A0936800B0936900BF91AF919F918F9182
S11303500F900FBE0F901F9018951F920F920FB61B
S11303600F9211242F938F939F93AF93BF938091F8
S11303706A0090916B00A0916C00B0916D00892B84
S11303808A2B8B2B09F447C080916A0090916B00F3
S1130390A0916C00B0916D008F3F9F4FA105B105F6
S11303A0A8F480916A0090916B00A0916C00B091C8
S11303B06D00809590959DBD8CBD10926A00109241
S11303C06B0010926C0010926D0056C080916A0010
S11303D090916B00A0916C00B0916D008F3F9F4F86
S11303E0A105B10508F448C01DBC1CBC80916A007D
S11303F090916B00A0916C00B0916D008F5F9F4F46
S1130400A109B10980936A0090936B00A0936C00DA
S1130410B0936D0031C080916A0090916B00A091FF
S11304206C00B0916D00892B8A2B8B2B29F5809160
S1130430620090916300A0916400B0916500809384
S11304406A0090936B00A0936C00B0936D001DBC88
S11304501CBC8091760090917700A0917800B091B7
S113046079000196A11DB11D8093760090937700C9
S1130470A0937800B0937900BF91AF919F918F9131
S11304802F910F900FBE0F901F90189585B58B7FFD
S113049085BD85B58D7F85BD85B58E7F85BD109263
S11304A072001092730010927400109275000895F7
S11304B01F920F920FB60F9211242F933F934F93D5
S11304C05F936F937F938F939F93AF93BF93EF93B8
S11304D0FF9380916A0090916B00A0916C00B091A1
S11304E06D00892B8A2B8B2B09F458C080916A00EC
S11304F090916B00A0916C00B0916D008F3F9105BD
S1130500A105B10538F580916A0090916B00A09126
S11305106C00B0916D00809584BD80916A009091CB
S11305206B00A0916C00B0916D0040916A005091F5
S11305306B0060916C0070916D00841B950BA60B91
S1130540B70B80936A0090936B00A0936C00B093F8
S11305506D0057C080916A0090916B00A0916C006F
S1130560B0916D008F3F9105A105B10508F449C014
S113057014BC80916A0090916B00A0916C00B091C2
S11305806D008F5F9109A109B10980936A0090936E
S11305906B00A0936C00B0936D0033C080916A002F
S11305A090916B00A0916C00B0916D00892B8A2B07
S11305B08B2B39F58091620090916300A0916400C7
S11305C0B091650080936A0090936B00A0936C00D7
S11305D0B0936D0014BC8091720090917300A0914F
S11305E07400B09175000196A11DB11D8093720035
S11305F090937300A0937400B0937500AA980E941E
S11306004602FF91EF91BF91AF919F918F917F919E
S11306106F915F914F913F912F910F900FBE0F906B
S10B06201F901895F894FFCF18
S9030000FC
