S00F0000554152545F41412E73726563F8
S11300000C942A000C943F000C943F000C943F0085
S11300100C943F000C943F000C943F000C943F0060
S11300200C943F000C943F000C943F000C943F0050
S11300300C943F000C943F000C943F000C943F0040
S11300400C943F000C943F000C943F000C943F0030
S11300500C943F0011241FBECFE5D8E0DEBFCDBF16
S113006010E0A0E6B0E0E6E8F1E002C005900D92F1
S1130070A236B107D9F70E9441000C94C1000C9438
S1130080000088E08AB986E880BD20916000309144
S11300906100C901330FAA0BBB0B880F991FAA1F5C
S11300A0BB1F880F991FAA1FBB1F9C01AD01220F04
S11300B0331F441F551F220F331F441F551F0F2E7C
S11300C0C12CF2E1DF2EFAE7EF2EF12CF02DC7015F
S11300D0B6010E949F00DA01C9010197A109B10983
S11300E0892F9A2FAB2FBB2780BD209160003091C0
S11300F06100C901330FAA0BBB0B880F991FAA1FFC
S1130100BB1F880F991FAA1FBB1F9C01AD01220FA3
S1130110331F441F551F220F331F441F551FC70190
S1130120B6010E949F008FEF820F89B98FEF87BBC2
S113013081E4C49A5D9BFECF8CB9C59AFACFA1E243
S11301401A2EAA1BBB1BFD010DC0AA1FBB1FEE1F4D
S1130150FF1FA217B307E407F50720F0A21BB30B98
S1130160E40BF50B661F771F881F991F1A9469F714
S113017060957095809590959B01AC01BD01CF0170
S10901800895F894FFCF7E
S10501868025CE
S9030000FC
