:100000000C942A000C943C000C943C000C943C0092
:100010000C943C000C943C000C943C000C943C0070
:100020000C943C000C943C000C943C000C943C0060
:100030000C943C000C944F010C9415010C943C0062
:100040000C943C000C943C000C943C000C943C0040
:100050000C943C0011241FBECFE5D8E0DEBFCDBF1D
:1000600020E0A0E6B0E001C01D92AF37B207E1F793
:100070000E94C0000C9419020C940000FF920F9390
:100080001F93CF93DF93CDB7DEB729970FB6F894C0
:10009000DEBF0FBECDBF8C0190917C009130B1F1DD
:1000A000D8018D919C919B838A8388E08D831986EA
:1000B00018861E82FF24F394F9821F82FC82CE01EF
:1000C00001960E947401F80186819781A085B1850F
:1000D000E4E7F0E083839483A583B683D801149684
:1000E0008D919C911597928381831A962C912083F0
:1000F000F0860396A0E0B0E08093700090937100CA
:10010000A0937200B093730080E001C081E0299653
:100110000FB6F894DEBF0FBECDBFDF91CF911F9118
:100120000F91FF9008959093690080936800509319
:100130006F0040936E00089580916A0090916B006B
:10014000A0916C00B0916D0020916E0030916F0015
:1001500082179307A0F42091680030916900820F04
:10016000931F0E941202E0916800F0916900809153
:100170006A0090916B00E80FF91F808188BB089599
:10018000CF93DF93CDB7DEB76B970FB6F894DEBF92
:100190000FBECDBF8E010F5F1F4F8DE0F801119292
:1001A0008A95E9F7C801012E000CAA0BBB0B8C8BBA
:1001B0009D8BAE8BBF8B80E895E2A0E0B0E08E8790
:1001C0009F87A88BB98B8AE090E09B8B8A8B85E117
:1001D00090E0A0E0B0E0888F998FAA8FBB8FCE010E
:1001E0000E960E943E008FEF8ABB4DE050E060E02B
:1001F00070E0C8010E94930080916A0090916B00AA
:100200000D971CF40E949C00F7CF8DE090E02885AC
:100210002BBB0197E1F7FFEF29E688E1F150204081
:100220008040E1F700C00000E7CF1F920F920FB6A9
:100230000F9211242F933F938F939F9380917E0071
:100240008CB98FEF8ABB87BB809164008BBB809198
:1002500060009091610020917000309171008217D0
:1002600093076CF422E030E0309365002093640043
:100270000196909361008093600088BB06C083E084
:1002800090E0909365008093640055989F918F91C2
:100290003F912F910F900FBE0F901F9018951F92B6
:1002A0000F920FB60F9211242F933F938F939F932A
:1002B0008CB180937D0080916A0090916B002091B9
:1002C0006E0030916F00821793072CF40196909383
:1002D0006B0080936A009F918F913F912F910F90B7
:1002E0000FBE0F901F901895FC01549A539A80B539
:1002F0008F7780BD8081882319F0813039F00CC060
:10030000599810BC83E389B980E007C0599A10BCA2
:1003100087E689B980E001C081E090B5906890BD22
:100320009381992319F0913029F008C090B5906419
:1003300090BD05C090B59F7B90BD01C081E09481C8
:100340009730D9F028F4953041F0963071F02DC0F7
:100350009830D9F0993009F128C090B59D7F90BDB3
:1003600090B59B7F90BD529821C090B5926090BD92
:1003700090B59B7F90BD529819C090B59D7F90BD60
:1003800090B5946090BD529811C090B5926090BDA8
:1003900090B5946090BD529809C090B5926090BDA0
:1003A00090B5946090BD529A01C081E095819130E2
:1003B00059F018F0923079F015C090B59F7D90BD3E
:1003C00090B59F7E90BD0FC090B5906290BD90B5E6
:1003D0009F7E90BD08C090B5906290BD90B5906131
:1003E00090BD01C081E09681992319F0913029F0E8
:1003F00008C090B5986090BD05C090B5977F90BD3E
:1004000001C081E09781992319F0913029F008C04B
:100410009FB790689FBF08959FB79F779FBF08952C
:1004200081E00895579A20917D00FC01208380E0AF
:060430000895F894FFCFCF
:00000001FF
