:100000000C942A000C9447000C9447000C94470071
:100010000C9447000C9447000C9447000C94470044
:100020000C9447000C9447000C9447000C94550323
:100030000C9447000C9447000C9447000C94470024
:100040000C9447000C9447000C9447000C94470014
:100050000C94470011241FBECFE5D8E0DEBFCDBF12
:1000600010E0A0E6B0E0E2EBF1E102C005900D92F5
:10007000AC36B107D9F720E0ACE6B0E001C01D9284
:10008000A23BB207E1F70E9427030C94D7080C9417
:100090000000DB9A8FE39FE10197F1F700C00000B9
:1000A000DB988FE39FE10197F1F700C0000008950E
:1000B000CF93C82FD9988BB38F708BBB8BB39C2FEA
:1000C000907F892B8BBB0E9449008BB38F708BBBB9
:1000D0002BB330E1C39FC0011124822B8BBB0E9444
:1000E0004900CF91089580EF8ABB8AB38E608ABBA6
:1000F000DA9883E30E94580082E30E94580088E265
:100100000E9458008FE00E94580081E00E94580031
:100110008FE39CE90197F1F700C000000895CF93A9
:10012000C82FD99A8BB38F708BBB8BB39C2F907FCA
:10013000892B8BBB0E9449008BB38F708BBB2BB379
:1001400030E1C39FC0011124822B8BBB0E94490068
:10015000CF9108950F931F9300916000109161005B
:1001600020916200309163000230110521053105B4
:1001700069F482E090E0A0E0B0E0809364009093A6
:100180006500A0936600B09367004BC0093011056D
:100190002105310509F045C0E0916800F091690042
:1001A0008083E0916800F09169001382128283E0FD
:1001B00081838091680090916900FC01448355839C
:1001C000668377830E941804E4E8F0E011861086C5
:1001D0008FEF9FEFDC0180839183A283B38314822E
:1001E000158216821782108E178A8787908BA18BB3
:1001F000B28B138A148A158A168A82E090E0A0E0F6
:10020000B0E08093600090936100A0936200B0938F
:1002100063001092640010926500109266001092C4
:100220006700809164001F910F9108954F925F9233
:100230006F927F92AF92BF92CF92DF92EF92FF9236
:100240000F931F934090640050906500609066008B
:100250007090670039E0431651046104710431F075
:1002600032E0431651046104710469F489E090E0BE
:10027000A0E0B0E08093640090936500A0936600D6
:10028000B093670052C045284628472809F04DC062
:1002900040908400509085006090860070908700A8
:1002A000472046204520409481F040909300509094
:1002B000940060909500709096004720462045205D
:1002C0004094E1F4A1E0B0E002C0A0E0B0E03FE083
:1002D0003A9FF0013B9FF00D1124EC57FF4FE08255
:1002E000F1820283138351874087628773878487F3
:1002F00095872687A482B582C682D782E09168005E
:10030000F0916900448155816681778180810E94E6
:100310004C0482E190E0A0E0B0E080936400909310
:100320006500A0936600B0936700809164001F9100
:100330000F91FF90EF90DF90CF90BF90AF907F90A4
:100340006F905F904F9008952F923F924F925F92DF
:100350006F927F928F929F92AF92BF92CF92DF92D5
:10036000EF92FF920F931F93CF93DF93CDB7DEB73A
:100370002C970FB6F894DEBF0FBECDBF25E030E05E
:1003800040E050E029873A874B875C8708E0AE0160
:100390004F5F5F4F5A010F2EF4E88F2EF0E09F2E33
:1003A000F02D1FE0312C212CD501E02F1D92EA9574
:1003B000E9F722E030E040E050E029833A834B83C4
:1003C0005C83F40184819581A681B78129853A8572
:1003D0004B855C8582179307A407B50709F00DC10B
:1003E00019821A821B821C8283899489A589B68905
:1003F00082179307A407B50709F0E8C0CC24C3947B
:10040000D12CE32CF22C03C0C12CD12C7601F601A7
:10041000EE0FFF1FEE0FFF1FEA0DFB1D31E03083D3
:100420001182328223824FEFC41AD40AE40AF40AFA
:1004300010927700109278001092790010927A0052
:1004400089819A81AB81BC81189FF001199FF00DC1
:100450001124EC57FF4F40815181628173814F3FDE
:100460005F4F6F4F7F4FE9F49FC0880F991F880F30
:10047000991FF501E80FF91F80819181A281B38155
:10048000189FF001199FF00D1124EC57FF4F408188
:100490005181628173814F3F5F4F6F4F7F4F09F4EE
:1004A00083C082309105A105B10509F464C0189F8D
:1004B000F001199FF00D1124EC57FF4F86858093B2
:1004C0008300228533854485558581112AC0E091BA
:1004D0006A00F0916B004080518062807380C3019C
:1004E000B2010E949B08672B682B692B09F043C05F
:1004F0008091A2009091A300A091A400B091A500CA
:10050000481659066A067B06B1F14092A200509245
:10051000A3006092A4007092A50082E40E948F0064
:100520002AC0813041F580916C0090916D00A091BE
:100530006E00B0916F008F3F9F4FAF4FBF4FD9F00C
:10054000E0916A00F0916B0080819181A281B3817A
:10055000281739074A075B0771F48FEF9FEFDC011B
:1005600080936C0090936D00A0936E00B0936F0029
:1005700081E40E948F008091770090917800A09193
:100580007900B0917A000196A11DB11D809377008A
:1005900090937800A0937900B0937A008C159D0514
:1005A000AE05BF0508F461CF29853A854B855C858A
:1005B000215031094109510929873A874B875C87C6
:1005C000232B242B252B09F0EFCE27C01092770088
:1005D000109278001092790010927A00CC24C39483
:1005E000D12CE32CF22C2CCF1092770010927800B3
:1005F0001092790010927A00D7CFF4018389948900
:10060000A589B68929853A854B855C85821793072C
:10061000A407B50709F4F8CEE7CF80E02C960FB613
:10062000F894DEBF0FBECDBFDF91CF911F910F9128
:10063000FF90EF90DF90CF90BF90AF909F908F9002
:100640007F906F905F904F903F902F900895789497
:100650008FEF87BB0E94730048EE53E060E070E0CC
:1006600080E00E94AA00A12CB12C6501A394E12C8A
:10067000F12C8701E39420E04FE850E061E070E066
:1006800080E090E00E941601A12CB12C65016894D5
:10069000A1F821E04FE850E065E070E080E090E0F4
:1006A0000E9416010E94A401FDCF1F920F920FB667
:1006B0000F9211242F933F934F935F936F937F93E8
:1006C0008F939F93AF93BF93EF93FF938091AA0073
:1006D0009091AB00A091AC00B091AD00892B8A2B1A
:1006E0008B2B09F445C08091AA009091AB00A0919A
:1006F000AC00B091AD008F3F9105A105B105A0F40C
:100700008091AA009091AB00A091AC00B091AD0097
:10071000809582BF1092AA001092AB001092AC009C
:100720001092AD0018BA5FC08091AA009091AB0002
:10073000A091AC00B091AD008F3F9105A105B1052E
:1007400008F451C012BE8091AA009091AB00A09114
:10075000AC00B091AD008F5F9109A109B109809300
:10076000AA009093AB00A093AC00B093AD003BC047
:100770008091AA009091AB00A091AC00B091AD0027
:10078000892B8A2B8B2B79F58091700090917100C9
:10079000A0917200B09173008093AA009093AB0077
:1007A000A093AC00B093AD0012BE8091A6009091D2
:1007B000A700A091A800B091A9000196A11DB11DAC
:1007C0008093A6009093A700A093A800B093A900DF
:1007D0008091A6009091A700A091A800B091A900D7
:1007E000805D0E948F00FF91EF91BF91AF919F912B
:1007F0008F917F916F915F914F913F912F910F90CA
:100800000FBE0F901F9018958EB58B7F8EBD8EB545
:100810008D7F8EBD8EB58E7F8EBD089585B58B7F05
:1008200085BD85B58D7F85BD85B58E7F85BD0895D8
:10083000DC019C91E92FF0E0EC58FF4F11968C9170
:10084000808391110AC083B78F7B83BF83B7877F73
:1008500083BF89B7816089BF1DC0913081F48FB596
:100860008E7F8FBD8FB58D7F8FBD8EB5877F8EBDFF
:100870008EB58F7E8EBD89B7846089BF0BC09230E4
:1008800049F483B78F7B83BF83B7877F83BF89B7E3
:10089000816089BF80E00895CF92DF92EF92FF924E
:1008A0008111F2C0809174008330F1F028F481301E
:1008B00041F0823069F039C0843009F1853051F15E
:1008C00034C083B7816083BFC12CD12C760130C086
:1008D00083B7826083BF0F2EC12CD12CF0E8EF2E9E
:1008E000FFE3FF2EF02D24C083B7836083BF0F2E5C
:1008F000C12CD12CE12CF1E4FF2EF02D19C083B7CF
:10090000846083BF0F2EC12CD12CE12CF2E4FF2E8A
:10091000F02D0EC083B7856083BF0F2EC12CD12C64
:10092000E12CF3E4FF2EF02D03C0C12CD12C760175
:10093000A8EEB3E09A01AB010E94BD080E940D0829
:10094000A70196010E946C070E94DE076093AA002F
:100950007093AB008093AC009093AD008091AA009F
:100960009091AB00A091AC00B091AD00809370006D
:1009700090937100A0937200B09373001092AE0038
:100980001092AF001092B0001092B1008091AE00B2
:100990009091AF00A091B000B091B1000297A10575
:1009A000B10508F093C28091AA009091AB00A0918C
:1009B000AC00B091AD008F3F9105A105B10508F5E0
:1009C0000DC08091AA009091AB00A091AC00B091B5
:1009D000AD008F3F9105A105B10598F48091AA0063
:1009E0009091AB00A091AC00B091AD00809582BF1A
:1009F0001092AA001092AB001092AC001092AD00C1
:100A000065C28091AA009091AB00A091AC00B0911A
:100A1000AD008F3F9105A105B105A8F012BE8091F0
:100A2000AA009091AB00A091AC00B091AD008F5F97
:100A30009109A109B1098093AA009093AB00A093FA
:100A4000AC00B093AD008091AE009091AF00A0914A
:100A5000B000B091B1000196A11DB11D8093AE0010
:100A60009093AF00A093B000B093B1008091AE001E
:100A70009091AF00A091B000B091B1000297A10594
:100A8000B10508F49ECF22C2813009F00EC18091D9
:100A900075008330F1F028F4813041F0823069F044
:100AA00039C0843009F1853051F134C08EB5816090
:100AB0008EBDC12CD12C760130C08EB582608EBD2A
:100AC0000F2EC12CD12CF0E8EF2EFFE3FF2EF02DDE
:100AD00024C08EB583608EBD0F2EC12CD12CE12C8D
:100AE000F1E4FF2EF02D19C08EB584608EBD0F2E5F
:100AF000C12CD12CE12CF2E4FF2EF02D0EC08EB5CE
:100B000085608EBD0F2EC12CD12CE12CF3E4FF2E7D
:100B1000F02D03C0C12CD12C7601A8EEB3E09A01D0
:100B2000AB010E94BD080E940D08A70196010E941A
:100B30006C070E94DE076093AA007093AB0080935D
:100B4000AC009093AD006091AA007091AB008091D1
:100B5000AC009091AD001092AE001092AF001092D8
:100B6000B0001092B1002FEF3FEF40E050E00E9444
:100B70009B08BA01A9014F5F5F4F6F4F7F4F809174
:100B8000AE009091AF00A091B000B091B100841779
:100B90009507A607B70708F085C08091AA00909135
:100BA000AB00A091AC00B091AD008F3F9F4FA1056D
:100BB000B105D8F08091AA009091AB00A091AC0053
:100BC000B091AD008F3F9F4FA105B10570F56AC090
:100BD0008091AA009091AB00A091AC00B091AD00C3
:100BE0008F3F9F4FA105B10598F48091AA00909185
:100BF000AB00A091AC00B091AD00809590959DBDEB
:100C00008CBD08B602FEFDCF88B7816088BF4AC0A0
:100C10008091AA009091AB00A091AC00B091AD0082
:100C20008F3F9F4FA105B105E8F11DBC1CBC08B664
:100C300002FEFDCF88B7816088BF8091AA009091A5
:100C4000AB00A091AC00B091AD008F5F9F4FA109A8
:100C5000B1098093AA009093AB00A093AC00B0932D
:100C6000AD008091AE009091AF00A091B000B09126
:100C7000B1000196A11DB11D8093AE009093AF000D
:100C8000A093B000B093B1008091AE009091AF00FE
:100C9000A091B000B091B10084179507A607B707DF
:100CA00008F496CF0E94040411C1823009F00EC1ED
:100CB000809176008330F1F028F4813041F0823069
:100CC00069F039C0843009F1853051F134C085B5FF
:100CD000816085BDC12CD12C760134C085B5826080
:100CE00085BD0F2EC12CD12CF0E8EF2EFFE3FF2E97
:100CF000F02D28C085B5836085BD0F2EC12CD12C69
:100D0000E12CF1E4FF2EF02D1DC085B5846085BD7A
:100D10000F2EC12CD12CE12CF2E4FF2EF02D12C0AD
:100D200085B5856085BD0F2EC12CD12CE12CF3E457
:100D3000FF2EF02D07C00F2EC12CD12CE12CF3E497
:100D4000FF2EF02DA8EEB3E09A01AB010E94BD0882
:100D50000E940D08A70196010E946C070E94DE0701
:100D60006093AA007093AB008093AC009093AD00A9
:100D70006091AA007091AB008091AC009091AD00A1
:100D80001092AE001092AF001092B0001092B1001D
:100D90002FEF30E040E050E00E949B08BA01A9012B
:100DA0004F5F5F4F6F4F7F4F8091AE009091AF00CC
:100DB000A091B000B091B10084179507A607B707BE
:100DC00008F082C08091AA009091AB00A091AC0085
:100DD000B091AD008F3F9105A105B105D8F080918C
:100DE000AA009091AB00A091AC00B091AD008F3FF4
:100DF0009105A105B10560F567C08091AA009091A9
:100E0000AB00A091AC00B091AD008F3F9105A10562
:100E1000B10588F48091AA009091AB00A091AC003C
:100E2000B091AD00809584BD08B606FEFDCF88B7B1
:100E3000816088BF49C08091AA009091AB00A091C9
:100E4000AC00B091AD008F3F9105A105B105E0F177
:100E500014BC08B606FEFDCF88B7816088BF8091BC
:100E6000AA009091AB00A091AC00B091AD008F5F53
:100E70009109A109B1098093AA009093AB00A093B6
:100E8000AC00B093AD008091AE009091AF00A09106
:100E9000B000B091B1000196A11DB11D8093AE00CC
:100EA0009093AF00A093B000B093B1008091AE00DA
:100EB0009091AF00A091B000B091B1008417950758
:100EC000A607B70708F499CF0E940E0480E0FF90B0
:100ED000EF90DF90CF9008950E9480070C946108F6
:100EE0000E945A0858F00E94530840F029F45F3FCE
:100EF00029F00C944A0851110C9495080C94500850
:100F00000E94720868F39923B1F3552391F3951B5E
:100F1000550BBB27AA2762177307840738F09F5F1A
:100F20005F4F220F331F441FAA1FA9F335D00E2E87
:100F30003AF0E0E832D091505040E695001CCAF7F4
:100F40002BD0FE2F29D0660F771F881FBB1F2617B7
:100F500037074807AB07B0E809F0BB0B802DBF018E
:100F6000FF2793585F4F3AF09E3F510578F00C945D
:100F70004A080C9495085F3FE4F3983ED4F38695B5
:100F800077956795B795F7959F5FC9F7880F911D7E
:100F90009695879597F90895E1E0660F771F881F6A
:100FA000BB1F621773078407BA0720F0621B730B1D
:100FB000840BBA0BEE1F88F7E09508950E947A081B
:100FC00088F09F5798F0B92F9927B751B0F0E1F00A
:100FD000660F771F881F991F1AF0BA95C9F714C0BA
:100FE000B13091F00E949408B1E008950C949408F7
:100FF000672F782F8827B85F39F0B93FCCF38695F3
:1010000077956795B395D9F73EF49095809570954F
:1010100061957F4F8F4F9F4F0895E89409C097FBCC
:101020003EF490958095709561957F4F8F4F9F4FBF
:101030009923A9F0F92F96E9BB279395F695879503
:1010400077956795B795F111F8CFFAF4BB0F11F4C6
:1010500060FF1BC06F5F7F4F8F4F9F4F16C088236D
:1010600011F096E911C0772321F09EE8872F762FA3
:1010700005C0662371F096E8862F70E060E02AF0E4
:101080009A95660F771F881FDAF7880F96958795D0
:1010900097F9089597F99F6780E870E060E00895F8
:1010A0009FEF80EC089500240A9416161706180680
:1010B0000906089500240A9412161306140605065C
:1010C0000895092E0394000C11F4882352F0BB0FED
:1010D00040F4BF2B11F460FF04C06F5F7F4F8F4F50
:1010E0009F4F089557FD9058440F551F59F05F3F8B
:1010F00071F04795880F97FB991F61F09F3F79F03A
:1011000087950895121613061406551FF2CF4695BB
:10111000F1DF08C0161617061806991FF1CF86953D
:101120007105610508940895E894BB276627772721
:10113000CB0197F90895A1E21A2EAA1BBB1BFD0152
:101140000DC0AA1FBB1FEE1FFF1FA217B307E407A6
:10115000F50720F0A21BB30BE40BF50B661F771FFE
:10116000881F991F1A9469F76095709580959095DE
:101170009B01AC01BD01CF0108950E94C808A59F45
:10118000900DB49F900DA49F800D911D1124089582
:10119000A29FB001B39FC001A39F700D811D1124B8
:1011A000911DB29F700D811D1124911D0895F89419
:0211B000FFCF6F
:0C11B20009000000090000007B00A600FE
:00000001FF
