:100000000C942A000C9447000C9447000C94470071
:100010000C9447000C9447000C9447000C942C045B
:100020000C9447000C9447000C9447000C94470034
:100030000C9447000C9447000C9447000C94470024
:100040000C9447000C9447000C9447000C94470014
:100050000C94470011241FBECFE5D8E0DEBFCDBF12
:1000600010E0A0E6B0E0E4EFF7E102C005900D92E9
:10007000AE38B107D9F726E0AEE8B0E001C01D9276
:10008000A23EB207E1F70E9410020C94F80B0C9408
:100090000000CF93DF9300D0CDB7DEB711E0809B97
:1000A00003C01093920002C0109292000E940B09AC
:1000B0009A83898366E970E0CE0101960E94370A2F
:1000C000EECFCF93DF9300D0CDB7DEB711E0819BA9
:1000D00003C01093910002C0109291000E940B097E
:1000E0009A83898366E970E0CE0101960E94370AFF
:1000F000EECFCF93DF9300D000D0CDB7DEB719821B
:1001000082E38A8312E380918E008530D1F0809162
:100110009200813049F489818F5F89838A8183339A
:10012000A0F081508A8311C080919100813069F4E0
:100130008A818F5F8A838981882339F081508983FE
:1001400004C019821A8310928E0020E040E050E033
:10015000BE016F5F7F4F80918F00909190000E9451
:10016000B90520E040E050E0BE016E5F7F4F809116
:100170008F00909190000E94B9050E940B099C830A
:100180008B836AEF70E0CE0103960E94370ABBCFE3
:10019000CF93DF93CDB7DEB728970FB6F894DEBFC5
:1001A0000FBECDBF198200E010E00F2EF5E0FF2E4C
:1001B000F02D48EC50E0BE016F5F7F4F80918F00C3
:1001C000909190000E947F06813009F05EC0898185
:1001D0009FEF980F913350F5181741F1843198F043
:1001E0000A3048F481E00E94CC0184E690E00E944D
:1001F000E4010F5F4AC081E00E94CC011982F092B5
:100200008E0000E042C061E080E00E94D10189815F
:100210004AE0BE016E5F7F4F90E00E94C30BCE01AB
:1002200002960E94E401198119822FC0833368F17C
:10023000181751F182538983843198F00A3048F4B9
:1002400081E00E94CC0184E690E00E94E4010F5F0F
:100250001CC081E00E94CC011982F0928E0000E067
:1002600014C061E081E00E94D10189814AE0BE01B1
:100270006E5F7F4F90E00E94C30BCE0102960E94FA
:10028000E4011981198201C0182F0E940B09988777
:100290008F8364E670E0CE0107960E94370A89CF0B
:1002A000EF92FF920F9340E061E0809160000E9426
:1002B0008A059093900080938F00E12CF12C02E04E
:1002C00020E030E048EC50E06EE670E089E490E039
:1002D0000E94BB0720E030E048EC50E066E770E0A9
:1002E00081E690E00E94BB0701E020E030E048ECAE
:1002F00050E06EE770E089E790E00E94BB0720E0E5
:1003000030E048EC50E064E870E088EC90E00E9457
:10031000BB070E94DB080F91FF90EF900895C29AEF
:1003200085E08A95F1F70000C2988FE697E1019782
:10033000F1F700C000000895CF93C82F882314F46C
:10034000C69A01C0C698C6FF02C0C59A01C0C5982A
:10035000C5FF02C0C49A01C0C498C4FF02C0C39ABA
:1003600001C0C3980E948F01C3FF02C0C69A01C09A
:10037000C698C2FF02C0C59A01C0C598C1FF02C09D
:10038000C49A01C0C498C0FF02C0C39A01C0C398F8
:100390000E948F01CF910895C098C1980E949C013E
:1003A0000895811105C08FE7860F0E94CC01089542
:1003B000813021F48FEB860F0E94CC010895C09A02
:1003C000C1980E949C010895CF93DF93EC0188812E
:1003D000882331F021960E94DF0189918111FBCFA2
:1003E000DF91CF9108958FE295E70197F1F700C073
:1003F0000000B89AB99ABA9ABE9ABD9ABC9ABB9AAA
:1004000083E30E94CC0182E30E94CC0188E20E9437
:10041000CC018CE00E94CC0181E00E94CC010895C7
:100420000E94F3010E945001FFCFCF93DF93EC01B4
:100430000E9405098091930090919400892B31F4DA
:1004400088E990E090939400809393002091950028
:1004500030919600C9018C0F9D1F8B3D45E094079C
:1004600070F42817390770F4C0919300D09194006C
:10047000C20FD31F909396008093950005C0C0E0F3
:10048000D0E002C0C0E0D0E00E94B809CE01DF9108
:10049000CF9108950895FC010396928381832FEFF5
:1004A0003FEF3483238396838583908787831082ED
:1004B0000895FC01118610860895CF93DF939C0167
:1004C000FB01DC011196CD91DC911297D383C2839D
:1004D0008C819D81958384838C819D81DC01139621
:1004E0007C936E9312977D836C8331872087F9010B
:1004F00080818F5F8083DF91CF910895CF93DF93C9
:10050000EB01488159814F3F2FEF520721F4FC0145
:10051000A781B0850DC0DC01139601C0DF011296E2
:10052000ED91FC9113972081318142175307B0F769
:100530001296ED91FC911397FB83EA83D583C483D4
:10054000BD83AC831396DC93CE93129799878887EB
:10055000FC0120812F5F2083DF91CF910895CF93FD
:10056000DF93FC01A085B185C281D381848195810F
:100570009D838C83C481D581828193819B838A836F
:1005800011968D919C911297E817F90731F48481A7
:10059000958112969C938E931197118610868C915B
:1005A00081508C938C91DF91CF91089531E1FC01C2
:1005B0003083319722E220833197A3E3A0833197E0
:1005C00060833197708331971082319760E8608340
:1005D00031971082319762E06083319763E06083E6
:1005E000319764E06083319765E06083319766E01E
:1005F0006083319767E06083319768E0608331976B
:1006000069E06083319760E160833197308331978F
:1006100032E13083319733E13083319734E13083F5
:10062000319735E13083319736E13083319737E1C7
:100630003083319738E13083319739E13083319716
:1006400030E23083319731E2308331972083319724
:1006500023E220833197408331975083319726E2FC
:100660002083319727E22083319728E22083319736
:1006700029E22083319720E32083319721E32083EF
:10068000869708951BBC8DE38ABD8BE08EBD89B72C
:10069000806189BFA091E006B091E106CD91CDBF08
:1006A000DD91DEBFFF91EF91DF91CF91BF91AF91CF
:1006B0009F918F917F916F915F914F913F912F917A
:1006C0001F910F91FF90EF90DF90CF90BF90AF9070
:1006D0009F908F907F906F905F904F903F902F9062
:1006E0001F900F900FBE0F90089581E008950F9214
:1006F0000FB6F8940F921F9211242F923F924F92AF
:100700005F926F927F928F929F92AF92BF92CF92A1
:10071000DF92EF92FF920F931F932F933F934F938C
:100720005F936F937F938F939F93AF93BF93CF9379
:10073000DF93EF93FF93A091E006B091E1060DB631
:100740000D920EB60D920E94750AA091E006B0912E
:10075000E106CD91CDBFDD91DEBFFF91EF91DF913D
:10076000CF91BF91AF919F918F917F916F915F9149
:100770004F913F912F911F910F91FF90EF90DF903C
:10078000CF90BF90AF909F908F907F906F905F9031
:100790004F903F902F901F900F900FBE0F90089595
:1007A0000F920FB6F8940F921F9211242F923F923E
:1007B0004F925F926F927F928F929F92AF92BF9271
:1007C000CF92DF92EF92FF920F931F932F933F935D
:1007D0004F935F936F937F938F939F93AF93BF9349
:1007E000CF93DF93EF93FF93A091E006B091E106E2
:1007F0000DB60D920EB60D920E94150981110E9440
:10080000750AA091E006B091E106CD91CDBFDD91D2
:10081000DEBFFF91EF91DF91CF91BF91AF919F919B
:100820008F917F916F915F914F913F912F911F9188
:100830000F91FF90EF90DF90CF90BF90AF909F907F
:100840008F907F906F905F904F903F902F901F9070
:100850000F900FBE0F9008950E94D00318950FB609
:10086000F8940F92FC01928D0F900FBE81E09111D0
:1008700080E008950F931F93CF93DF93EC01042F33
:100880001A8D4C8D41110CC088819981892B09F0FA
:1008900042C08C819D810E947A0B1D821C8242C0C5
:1008A000011117C050E08A819B810E94BA0B2C8DE8
:1008B0008A819B81820F911D9B838A832C813D813C
:1008C0008217930750F1888199819B838A8380E006
:1008D00029C050E08E819F810E94BA0B8C8D90E0E0
:1008E0009195819591092E813F81280F391F3F8372
:1008F0002E83488159812417350730F42C813D819E
:10090000820F931F9F838E83023049F4112349F095
:10091000115080E007C080E005C080E003C080E0A7
:1009200001C080E01F5F1A8FDF91CF911F910F915F
:100930000895EF92FF920F931F93CF93DF9300D010
:10094000CDB7DEB79A838983FC01078D10A1F8012A
:10095000928D838D9817E8F4462FE68CBE016F5F69
:100960007F4FC8010E943A04F82EFFEFEF120DC02E
:10097000F8018189882371F0C80141960E94ED0A2F
:10098000882341F0FF24F39405C0E394F801E68E38
:1009900001C0F12C8F2D0F900F90DF91CF911F91FF
:1009A0000F91FF90EF900895FC01448D4423A9F02E
:1009B00050E026813781240F351F378326838481B9
:1009C00095812817390720F080819181978386834C
:1009D000CB01668177810E94BA0B0895EF92FF9256
:1009E0000F931F93CF938C010FB6F8940F92FC01D5
:1009F000C68D1C16F4F47C01F1E1EF0EF11CF80138
:100A0000878D90A1892B49F060E0C8010E9499046C
:100A1000882369F00E94760B0AC0F8018189882337
:100A200041F0C7010E94ED0A81110E94760BC1506E
:100A300031F78FEFF801868F0F900FBE0FB6F89445
:100A40000F92C58D1C16ACF48085811106C011C0B3
:100A5000F8018085811105C00CC07801F8E0EF0E27
:100A6000F11CC7010E94ED0A81110E94760BC15052
:100A700079F78FEFF801858F0F900FBECF911F91FF
:100A80000F91FF90EF900895CF93DF93EC010FB695
:100A9000F8940F92E881F9818B8D2C8D90E030E0F5
:100AA000829FA001839F500D929F500D11244E0FE5
:100AB0005F1F5D834C831A8EFB83EA830197829FBD
:100AC000A001839F500D929F500D1124CF01840FE0
:100AD000951F9F838E838FEF8D8F8E8F61110CC03A
:100AE0008885882389F0CE0108960E94ED0A882324
:100AF00059F00E94770308C0CE0108960E944B026D
:100B0000CE0141960E944B020F900FBE81E0DF9113
:100B1000CF9108950F931F93CF93DF93082F162F34
:100B20006623D1F0869FC001112481960E94150290
:100B3000EC01009751F417C00B8F1C8F61E0CE01C0
:100B40000E94440518A21F8E0EC081969983888347
:100B5000F3CFD983C883F0CF81E290E00E941502E1
:100B6000EC01892BB1F7CE01DF91CF911F910F914D
:100B700008959F92AF92BF92CF92DF92EF92FF9231
:100B80000F931F93CF93DF9300D000D01F92CDB768
:100B9000DEB78C016B015D834C83A22EB12C9924AE
:100BA00093947C0188E0E80EF11C0FB6F8940F9244
:100BB000F801928D838D981720F0F2E0AF122FC0CC
:100BC0007FC0F801F28C4A2DB601C8010E943A0498
:100BD000F801278D30A1232B71F0F2E0AF1202C093
:100BE000F11019C06A2DC8010E949904882399F058
:100BF0000E94770310C0F8019189992349F0C80138
:100C000041960E94ED0A882331F00E94770303C0C9
:100C100081110E9477030F900FBE81E05FC08C812D
:100C20009D81892B21F40F900FBE80E057C0B11039
:100C300005C0CE0101960E94350BB92C0F900FBE56
:100C40000E9405090FB6F8940F92F801858D8F3F29
:100C500009F4158EF801868D8F3F09F4168E0F90DA
:100C60000FBEBE016C5F7F4FCE0101960E94400B0C
:100C700081111FC00FB6F8940F92F801928D0F905A
:100C80000FBE838D98130FC06C817D81C7010E94B8
:100C9000DB0AC8010E94EE040E94B809811185CFC9
:100CA0000E94770382CFC8010E94EE040E94B80917
:100CB0007CCFC8010E94EE040E94B80980E00EC0FB
:100CC000F801F28C42E0B601C8010E943A04F80132
:100CD000278D30A1232B09F083CF8DCF0F900F905C
:100CE0000F900F900F90DF91CF911F910F91FF9078
:100CF000EF90DF90CF90BF90AF909F9008959F921C
:100D0000AF92BF92CF92DF92EF92FF920F931F9319
:100D1000CF93DF9300D000D01F92CDB7DEB78C0108
:100D20005B015D834C83E12C992493946C0181E1F8
:100D3000C80ED11C0FB6F8940F92F801F28CFF2068
:100D4000A9F0B501C8010E94D404FA94F801F28E0A
:100D50008085882339F0C80108960E94ED0A811128
:100D60000E9477030F900FBE81E051C08C819D815E
:100D7000892B21F40F900FBE80E049C0E11005C01F
:100D8000CE0101960E94350BE92C0F900FBE0E94F8
:100D900005090FB6F8940F92F801858D8F3F09F47D
:100DA000158EF801868D8F3F09F4168E0F900FBEB9
:100DB000BE016C5F7F4FCE0101960E94400B8111F6
:100DC0001AC0C8010E942F04882379F06C817D81AC
:100DD000C6010E94DB0AC8010E94EE040E94B80905
:100DE0008111A8CF0E947703A5CFC8010E94EE040D
:100DF0000E94B8099FCFC8010E94EE040E94B80962
:100E0000C8010E942F04882309F494CF80E00F903A
:100E10000F900F900F900F90DF91CF911F910F9136
:100E2000FF90EF90DF90CF90BF90AF909F9008958C
:100E3000E0919F06F091A0068081811107C08FEF9D
:100E40009FEF90937706809376060895E0919F0632
:100E5000F091A0060580F681E02D0680F781E02D57
:100E600082819381909377068093760608950BE8AC
:100E700016E080918A068823E1F30FB6F8940F926A
:100E8000D8011596ED91FC911697C681D781CE01B8
:100E900002960E94AF028091800681508093800666
:100EA00080918A06815080938A060F900FBE8F89A9
:100EB000988D0E944A02CE010E944A0280918A06C1
:100EC0008111DBCFD6CFFF920F931F93CF93DF9388
:100ED000EC01F62E00917E0610917F068091E006CF
:100EE0009091E10602960E94AF02CF3F8FEFD807A4
:100EF00069F4FF2059F06091E0067091E1066E5FA1
:100F00007F4F81E896E00E945D022FC0C00FD11F85
:100F1000E091E006F091E106D383C283C017D107C8
:100F200068F46091E0067091E10680919D069091D1
:100F30009E066E5F7F4F0E947E0217C06091E006A2
:100F40007091E10680919F069091A0066E5F7F4FA1
:100F50000E947E028091760690917706C817D90785
:100F600020F4D0937706C0937606DF91CF911F913E
:100F70000F91FF9008954F925F926F927F928F92A0
:100F80009F92AF92BF92CF92DF92EF92FF920F9318
:100F90001F93CF93DF934C016B015A012901CA01C2
:100FA0000E9415023C01892B09F4F3C082E390E012
:100FB0000E941502EC01892B59F0788E6F8A81E02E
:100FC000A81AB1086A0C7B1CC114D10429F420C0F2
:100FD000C3010E944A02DDC0D6018C91898F8C9199
:100FE0008823A1F0AE01465E5F4FF6013196B8E06E
:100FF000CB0ED11CCF012191DA012D93AD01DC0183
:101000008C91882319F0CE16DF06A1F718A201C033
:10101000198E053008F004E00E8B09A31AA26E01A8
:10102000B2E0CB0ED11CC6010E945902CE010C9633
:101030000E945902D987C88785E090E0801B9109FA
:101040009D878C87DB8BCA8B1CA21BA21EA21DA2B4
:1010500018A61FA21AA619A61CA61BA61DA61EA688
:101060001FA618AA19AAA201B401C3010E94D602A0
:1010700099838883E114F10419F0F701D183C083C7
:101080000FB6F8940F92809180068F5F8093800650
:101090008091E0069091E106892BD1F5D093E1068D
:1010A000C093E00680918006813009F041C003EBD7
:1010B00016E00F2EF0EEEF2EF6E0FF2EF02DC80119
:1010C0000E944B02075F1F4F0E151F05C1F78AEAEA
:1010D00096E00E944B0281EA96E00E944B0284E96E
:1010E00096E00E944B028BE896E00E944B0281E85A
:1010F00096E00E944B028AEA96E09093A0068093C5
:101100009F0681EA96E090939E0680939D0610C00C
:1011100080917C0681110CC0E091E006F091E1061F
:1011200096898E89891720F0D093E106C093E00656
:10113000809178068F5F809378068E8990917D06E6
:10114000981710F480937D0690E09C01220F331FC6
:10115000220F331F220F331F820F931FB6018D54AE
:10116000994F0E945D020F900FBE80917C068823EC
:1011700061F0E091E006F091E10696898E8998177A
:1011800030F40E94770381E005C081E003C081E074
:1011900001C08FEFDF91CF911F910F91FF90EF90E2
:1011A000DF90CF90BF90AF909F908F907F906F9087
:1011B0005F904F900895EF92FF920F930F2EF4E7F8
:1011C000EF2EF6E0FF2EF02D00E020E030E040E8CA
:1011D00050E068E870E087E397E00E94BB07813049
:1011E00081F4F8948FEF9FEF9093770680937606C3
:1011F00081E080937C0610927F0610927E060E940A
:1012000042030F91FF90EF900895809173068F5FD6
:101210008093730608950FB6F8940F9280917E061E
:1012200090917F060F900FBE0895CF92DF92EF92BC
:10123000FF920F931F93CF93DF93809173068111D9
:1012400081C0E0907E06F0907F068FEFE81AF80AE2
:10125000F0927F06E0927E06E114F104B9F48091E9
:101260009F069091A00620919D0630919E06309396
:10127000A00620939F0690939E0680939D068091E2
:1012800079068F5F809379060E9418078091760611
:1012900090917706E816F90610F4D12C59C0D12C9C
:1012A000CC24C394E0919F06F091A0068081811127
:1012B00007C08FEF9FEF909377068093760648C024
:1012C000E0919F06F091A0060580F681E02DC68191
:1012D000D7818A819B81E816F90628F490937706D6
:1012E0008093760635C08E010E5F1F4FC8010E94A5
:1012F000AF028C899D89892B21F0CE010C960E942A
:10130000AF028E8990917D06981710F480937D0628
:1013100090E09C01220F331F220F331F220F331F37
:10132000820F931FB8018D54994F0E945D02E09186
:10133000E006F091E1069E898689981708F4B2CFFD
:10134000DC2CB0CF80917B068F5F80937B06D12C05
:1013500080917A06882311F0DD24D3948D2DDF91BE
:10136000CF911F910F91FF90EF90DF90CF90089554
:10137000DF92EF92FF920F931F93CF93DF930FB6FD
:10138000F8940F9280917306815080937306809138
:10139000730681115FC080918006811133C05DC0EA
:1013A000D7011596ED91FC911697C681D781CE0194
:1013B0000C960E94AF028E010E5F1F4FC8010E9463
:1013C000AF028E8990917D06981710F480937D0668
:1013D00090E09C01220F331F220F331F220F331F77
:1013E000820F931FB8018D54994F0E945D02E091C6
:1013F000E006F091E1069E898689981768F0D09200
:101400007A060AC0C0E0D0E00F2EF4E9EF2EF6E035
:10141000FF2EF02DDD24D394F70180818111C0CF00
:10142000CD2B11F00E941807C0917B06CC2351F000
:10143000D1E00E9415098111D0937A06C150C9F7F5
:1014400010927B0680917A06882331F00E94770300
:1014500081E003C080E001C080E00F900FBEDF910B
:10146000CF911F910F91FF90EF90DF9008950F9310
:101470001F93CF93DF938C01EB010E9405094091EC
:101480007E0650917F06F80120813181C9018C0FC1
:101490009D1F4217530748F482179307E8F491837E
:1014A00080834817590768F407C08217930780F0B4
:1014B0004817590768F010C060E0841B950B0E9424
:1014C00063070E94B80981110BC00E94770308C00E
:1014D000F80191838083F0CFF80191838083F1CF6D
:1014E000DF91CF911F910F9108958091730688230A
:1014F00021F081E080937A06089510927A06209177
:101500007D06822F90E0FC01EE0FFF1FEE0FFF1F04
:10151000EE0FFF1FE80FF91FED54F94F3081311125
:1015200011C02150822F90E0FC01EE0FFF1FEE0F43
:10153000FF1FEE0FFF1FE80FF91FED54F94F308129
:10154000332379F3AC01440F551F440F551F440F4B
:10155000551F480F591FDA01AD54B94F1196ED913F
:10156000FC9112970280F381E02D1296FC93EE938A
:1015700011974A54594FE417F50729F442815381D2
:10158000FD0152834183FC01EE0FFF1FEE0FFF1F91
:10159000EE0FFF1F8E0F9F1FFC01ED54F94F0180CE
:1015A000F281E02D868197819093E1068093E00699
:1015B00020937D060895CF93DF93EB016091E006C1
:1015C0007091E106645F7F4F0E947E0261E0CE0170
:1015D0000E946307DF91CF9108950F931F93CF93DC
:1015E000DF93DC011596ED91FC911697C681D781AA
:1015F0008E01045F1F4FC8010E94AF0280917306E5
:1016000081111CC00A501109C8010E94AF028E89C5
:1016100090917D06981710F480937D0690E09C01D0
:10162000220F331F220F331F220F331F820F931FEE
:10163000B8018D54994F0E945D0205C0B80184E93C
:1016400096E00E945D02E091E006F091E1069E893D
:101650008689891720F481E080937A0601C080E0B2
:10166000DF91CF911F910F91089520917906FC0190
:10167000208320917E0630917F0632832183089556
:10168000CF93DF930FB6F8940F9220917E0630919E
:101690007F06DB014D915C914F3FBFEF5B07F1F09F
:1016A000EC01E981FA81A0917906B881BA1719F0A5
:1016B0002E173F07A8F42E1B3F0B2417350748F4BD
:1016C000FB01421B530B518340830E94350B80E08A
:1016D00008C0FB011182108281E003C080E001C0DC
:1016E00081E00F900FBEDF91CF91089581E080934C
:1016F0007A0608950F931F93CF93DF93FC01892BF4
:1017000079F182A1815082A3268991A1291751F1F3
:1017100081112AC0EF018F010E5F1F4FC8010E9487
:10172000AF0289A18E8B25E030E0281B31093D876F
:101730002C8790917D06981710F480937D0690E099
:101740009C01220F331F220F331F220F331F820FE2
:10175000931FB8018D54994F0E945D0281E005C02E
:1017600080E003C080E001C080E0DF91CF911F9155
:101770000F910895FB01DC0102C001900D924150D0
:101780005040D8F70895BB274A3031F4992322F40A
:10179000BDE2909581959F4F0C94CF0BBB27FB0129
:1017A0005527AA27880F991FAA1FA41710F0A41B5A
:1017B00083955051B9F7A05DAA3308F0A95DA193B4
:1017C000009779F7B111B1931192CB010C94E80B0A
:1017D000DC01FC01672F71917723E1F7329704C098
:1017E0007C916D9370836291AE17BF07C8F3089523
:0417F000F894FFCF9B
:1017F4000A000000796F752057696E202100427538
:1018040074746F6E3100427574746F6E320051756A
:0E181400657565004C43440049444C45000096
:00000001FF
