:100000000C942A000C9447000C9447000C94470071
:100010000C9447000C9447000C9447000C94170272
:100020000C9447000C9447000C9447000C94470034
:100030000C9447000C9447000C9447000C94470024
:100040000C9447000C9447000C9447000C94470014
:100050000C94470011241FBECFE5D8E0DEBFCDBF12
:1000600010E0A0E6B0E0EAE0FEE002C005900D92EC
:10007000AA36B107D9F720E0AAE6B0E001C01D9288
:10008000AB3DB207E1F70E94DD020C9403070C942C
:1000900000000F930E949F0268EE73E080E090E002
:1000A0000E947E0000E021E040ED57E060E070E05B
:1000B00082ED92E00E94080101E020E048EE53E06A
:1000C00060E070E081EB92E00E94080102E020E035
:1000D00044EF51E060E070E08CEB92E00E94080198
:1000E00003E020E04AEF50E060E070E087EC92E04F
:1000F0000E9408010E94BB010F910895CF92DF92E8
:10010000EF92FF921F93CF93DF9300D000D0CDB733
:10011000DEB719821A821B821C8220916500322F61
:100120003D7F89F40F2EF0E8CF2EFFE7DF2EE12C84
:10013000F12CF02DC092C800D092C900E092CA0004
:10014000F092CB0013C0213089F40F2EF0E8CF2EAF
:10015000DD24DA94FFE7EF2EF12CF02DC092C800D9
:10016000D092C900E092CA00F092CB0060387105CD
:1001700081059105E8F1C090C800D090C900E090D9
:10018000CA00F090CB00C616D706E806F90690F133
:100190006B017C0185E690E00E94E003BE016F5F89
:1001A0007F4F809165000E94A106182F69817A8196
:1001B0008B819C8128EE33E040E050E00E94E10614
:1001C00029833A834B835C83C701B6010E94E10611
:1001D000CA01B9013093C6002093C50011110BC0AC
:1001E00021E020936400809165000E944C0503C0CB
:1001F00014E001C014E0812F0F900F900F900F902A
:10020000DF91CF911F91FF90EF90DF90CF900895F5
:100210000F93FC01909164009130C1F53097C1F1CA
:100220008091C8009091C900A091CA00B091CB0004
:1002300084179507A607B70768F1223068F5309153
:10024000C4003A3058F5832F90E0DC01AA0FBB1FA1
:10025000AA0FBB1FAA0FBB1FA80FB91FA659BF4FDC
:100260001896FC93EE93179713964D935D936D93A9
:100270007C9316972C9311960C93119781E012960C
:100280008C933F5F3093C40080E009C082E007C0D8
:1002900083E005C086E003C085E001C087E00F91E0
:1002A00008950F931F93BC0180916400813009F081
:1002B0005AC06115710509F458C08091C4008823A3
:1002C00009F455C090E0292F30E0F901EE0FFF1F2F
:1002D000EE0FFF1FEE0FFF1FE20FF31FE659FF4F58
:1002E0004781508564177507B1F58150A82FB0E09C
:1002F000AD01440F551F440F551F440F551FA40F48
:10030000B51FA659BF4F17964D915C911897F901EB
:10031000EE0FFF1FEE0FFF1FEE0FFF1F2E0F3F1FF1
:10032000F901E659FF4F5087478313960D911D91B0
:100330002D913C91169703831483258336832C914A
:10034000208311962C91119721832C91228318964A
:100350001C921E9217979F5F981708F4B4CF809352
:10036000C40080E005C082E003C083E001C080E0FB
:100370001F910F910895FF24F39400E01F2D4091E9
:10038000C400442331F1EBE6F0E0502F602F80E011
:100390009181911119C05523A9F0262F30E0D90180
:1003A000AA0FBB1FAA0FBB1FAA0FBB1F2A0F3B1F01
:1003B000D901A659BF4F208111969C91921720F424
:1003C000682F02C0682F512F8F5F39968413E0CFBA
:1003D00001C0602FC62FD0E0FE01EE0FFF1FEE0F11
:1003E000FF1FEE0FFF1FEC0FFD1FE659FF4F82812D
:1003F0008111C7CF6F01F2820780F085E02D09954A
:10040000F6018081813031F4F601878190850E9468
:100410005101B5CFFE01EE0FFF1FEE0FFF1FEE0FD4
:10042000FF1FEC0FFD1FE659FF4FF282A8CF1F926E
:100430000F920FB60F921124FF920F931F932F93D9
:100440003F934F935F936F937F938F939F93AF935C
:10045000BF93CF93DF93EF93FF93809160009091D0
:100460006100A0916200B091630081349244AF407A
:10047000B105A0F48091600090916100A0916200AC
:10048000B09163000196A11DB11D8093600090930F
:100490006100A0936200B09363000CC081E090E023
:1004A000A0E0B0E08093600090936100A0936200B0
:1004B000B09363001092C700F090C400FF2049F190
:1004C000CCE6D0E00FEF0F0D10E0C801880F991FA8
:1004D000880F991F880F991F080F191F0B581F4F5E
:1004E0006091600070916100809162009091630062
:1004F00029813A814B815C810E94E106672B682B40
:10050000692B09F418822996C017D10749F7F09290
:10051000C700FF91EF91DF91CF91BF91AF919F9174
:100520008F917F916F915F914F913F912F911F918B
:100530000F91FF900F900FBE0F901F90189561E0E4
:100540008CE00E94E20261E08DE00E94E20261E044
:100550008EE00E94E20261E08FE00E94E20280E011
:1005600008958CE00E948B038FE39CE90197F1F7DB
:1005700000C0000080E008958DE00E948B038FE3AF
:100580009CE90197F1F700C0000080E008958EE03B
:100590000E948B038FE39CE90197F1F700C00000F4
:1005A00080E008958FE00E948B038FE39CE9019720
:1005B000F1F700C0000080E008950E94490080E04B
:1005C00090E00895803208F09EC061114FC08830DD
:1005D00080F44AB3877021E030E0B90102C0660FB1
:1005E000771F8A95E2F7CB01809584238ABB80E050
:1005F000089598EF980F983080F447B3877021E002
:1006000030E0B90102C0660F771F8A95E2F7CB018F
:100610008095842387BB80E0089590EF980F9830F1
:1006200080F444B3877021E030E0B90102C0660F66
:10063000771F8A95E2F7CB018095842384BB80E005
:10064000089598EE980F983008F05FC041B3877016
:1006500021E030E0B90102C0660F771F8A95E2F70A
:10066000CB018095842381BB80E00895613009F03F
:100670004EC0883078F44AB3877021E030E0B90189
:1006800002C0660F771F8A95E2F7CB01842B8ABBE5
:1006900080E0089598EF980F983078F447B387700A
:1006A00021E030E0B90102C0660F771F8A95E2F7BA
:1006B000CB01842B87BB80E0089590EF980F983092
:1006C00078F444B3877021E030E0B90102C0660FCE
:1006D000771F8A95E2F7CB01842B84BB80E00895D5
:1006E00098EE980F9830A8F441B3877021E030E07D
:1006F000B90102C0660F771F8A95E2F7CB01842B00
:1007000081BB80E0089581E0089580E0089583E052
:10071000089580E00895803208F04AC0883078F467
:100720004BB3877021E030E0B90102C0660F771F3C
:100730008A95E2F7CB0184278BBB80E0089598EF80
:10074000980F983078F448B3877021E030E0B90111
:1007500002C0660F771F8A95E2F7CB01842788BB1A
:1007600080E0089590EF980F983078F445B3877043
:1007700021E030E0B90102C0660F771F8A95E2F7E9
:10078000CB01842785BB80E0089598EE980F9830C0
:1007900088F442B3877021E030E0B90102C0660FEF
:1007A000771F8A95E2F7CB01842782BB80E008950A
:1007B00081E0089580E008958FB780688FBF089525
:1007C000009709F45FC1FC018081811166C08181BD
:1007D0008093D8008381811107C00E94DC0389B710
:1007E000816089BF80E008C0813029F489B78E7F9D
:1007F00089BF80E001C084E093B7986093BF909177
:10080000D800913069F44DE750E060E070E040932B
:10081000CC005093CD006093CE007093CF002CC1DC
:10082000923069F448EE53E060E070E04093CC0011
:100830005093CD006093CE007093CF001DC19330D4
:1008400069F440E45FE160E070E04093CC005093D5
:10085000CD006093CE007093CF000EC1943069F448
:1008600040E05DE760E070E04093CC005093CD0045
:100870006093CE007093CF00FFC0953009F004C1A3
:1008800040E054EF61E070E04093CC005093CD0025
:100890006093CE007093CF00EFC0813009F06AC042
:1008A00081818093D900838181110BC08FEF9FEFED
:1008B0009BBD8ABD0E94DC0389B7806189BF80E04F
:1008C00008C0813029F489B78F7E89BF80E001C0DC
:1008D00084E09EB598609EBD9091D900913069F4F6
:1008E0004DE750E060E070E04093D0005093D100BD
:1008F0006093D2007093D300BFC0923069F448EE89
:1009000053E060E070E04093D0005093D1006093DA
:10091000D2007093D300B0C0933069F440E45FE13B
:1009200060E070E04093D0005093D1006093D2001B
:100930007093D300A1C0943069F440E05DE760E0BB
:1009400070E04093D0005093D1006093D200709338
:10095000D30092C0953009F099C040E054EF61E0B7
:1009600070E04093D0005093D1006093D200709318
:10097000D30082C0823009F08BC081818093DA007D
:100980008381811107C00E94DC0389B7806489BF1D
:1009900080E008C0813029F489B78F7B89BF80E06F
:1009A00001C084E09091DA00913069F44DE750E0A5
:1009B00060E070E04093D4005093D5006093D6007F
:1009C0007093D70059C0923069F448EE53E060E06C
:1009D00070E04093D4005093D5006093D60070939C
:1009E000D7004AC0933069F440EA5FE060E070E00D
:1009F0004093D4005093D5006093D6007093D700F5
:100A00003BC0943069F440E45FE160E070E0409303
:100A1000D4005093D5006093D6007093D7002CC0BB
:100A2000953069F440E85EE360E070E04093D40004
:100A30005093D5006093D6007093D7001DC09630B8
:100A400069F440E05DE760E070E04093D4005093CB
:100A5000D5006093D6007093D7000EC09730D1F4C4
:100A600040E054EF61E070E04093D4005093D50033
:100A70006093D6007093D70081110DC097E09093DA
:100A80006900089581E0089583E0089583E0089562
:100A900082E0089583E0089590916900973009F00D
:100AA00048C181116AC06F3F710511F008F043C160
:100AB0008091D80081110AC083B78E7F83BF83B72E
:100AC0008D7F83BF83B78B7F83BF53C0813051F449
:100AD00083B7816083BF83B78D7F83BF83B78B7FED
:100AE00083BF47C0823051F483B78E7F83BF83B703
:100AF000826083BF83B78B7F83BF3BC0833051F459
:100B000083B7816083BF83B7826083BF83B78B7FE6
:100B100083BF2FC0843051F483B78E7F83BF83B7E8
:100B20008D7F83BF83B7846083BF23C0853051F43A
:100B300083B7816083BF83B78D7F83BF83B78460B2
:100B400083BF17C0863051F483B78E7F83BF83B7CE
:100B5000826083BF83B7846083BF0BC0873049F452
:100B600083B7816083BF83B7826083BF83B78460AC
:100B700083BF609562BF80E00895813009F06CC04A
:100B80001DBC1CBC80916900873009F061C0809158
:100B9000D90081110AC08EB58E7F8EBD8EB58D7F36
:100BA0008EBD8EB58B7F8EBD53C0813051F48EB516
:100BB00081608EBD8EB58D7F8EBD8EB58B7F8EBDD7
:100BC00047C0823051F48EB58E7F8EBD8EB5826067
:100BD0008EBD8EB58B7F8EBD3BC0833051F48EB5FC
:100BE00081608EBD8EB582608EBD8EB58B7F8EBDD1
:100BF0002FC0843051F48EB58E7F8EBD8EB58D7F23
:100C00008EBD8EB584608EBD23C0853051F48EB507
:100C100081608EBD8EB58D7F8EBD8EB584608EBD9C
:100C200017C0863051F48EB58E7F8EBD8EB5826032
:100C30008EBD8EB584608EBD0BC0873049F48EB5F5
:100C400081608EBD8EB582608EBD8EB584608EBD96
:100C50007BBD6ABD80E00895823009F06EC06F3FB1
:100C6000710511F008F06BC08091DA0081110AC0A3
:100C700085B58E7F85BD85B58D7F85BD85B58B7F1F
:100C800085BD53C0813051F485B5816085BD85B582
:100C90008D7F85BD85B58B7F85BD47C0823051F482
:100CA00085B58E7F85BD85B5826085BD85B58B7F19
:100CB00085BD3BC0833051F485B5816085BD85B568
:100CC000826085BD85B58B7F85BD2FC0843051F492
:100CD00085B58E7F85BD85B58D7F85BD85B58460E5
:100CE00085BD23C0853051F485B5816085BD85B54E
:100CF0008D7F85BD85B5846085BD17C0863051F474
:100D000085B58E7F85BD85B5826085BD85B58460DE
:100D100085BD0BC0873049F485B5816085BD85B53B
:100D2000826085BD85B5846085BD609564BD80E0C9
:100D3000089586E0089585E0089582E0089585E0AD
:100D40000895909169009730B1F561157105A9F189
:100D500081110FC08091CC009091CD00A091CE0068
:100D6000B091CF00FB0180839183A283B38380E0A5
:100D70000895813079F48091D0009091D100A091B4
:100D8000D200B091D300FB0180839183A283B3830F
:100D900080E00895823099F48091D4009091D5003C
:100DA000A091D600B091D700FB0180839183A283EC
:100DB000B38380E0089586E0089581E0089582E09D
:100DC0000895A1E21A2EAA1BBB1BFD010DC0AA1F8C
:100DD000BB1FEE1FFF1FA217B307E407F50720F0A4
:100DE000A21BB30BE40BF50B661F771F881F991F1F
:100DF0001A9469F760957095809590959B01AC0168
:0A0E0000BD01CF010895F894FFCF63
:0A0E0A0001000000020105000006CF
:00000001FF
